:020000040800F2
:10000000F03B0020393B00089506000897060008E1
:10001000990600089B0600089D06000800000000E5
:100020000000000000000000000000009F06000823
:10003000A106000800000000A3060008A5060008AD
:10004000533B0008533B0008533B0008533B000858
:10005000533B0008533B0008533B0008533B000848
:10006000533B0008533B0008533B0008533B000838
:10007000533B0008533B0008533B0008533B000828
:10008000533B0008533B0008533B0008533B000818
:10009000533B0008533B0008533B0008533B000808
:1000A000533B0008533B0008533B0008533B0008F8
:1000B000095C0008533B0008C15F0008533B00087F
:1000C000533B0008533B0008533B0008533B0008D8
:1000D000533B00081B0C0008836E000885100008C5
:1000E000533B0008533B0008533B0008DFF80CD09B
:1000F00008F062FD00480047D9020008F03B0020EC
:1001000070B500F021FB4FF4A06004F049F903F052
:10011000C7FC05F0C7FC05F000FD05F014FA4FF42C
:10012000165000F010FD4FF4E134204606F020FE9A
:10013000204600F035FF06F06FFF00F00EFE00F0E5
:10014000E3FE07F028FEFEA000F049FDFF4E4FF44D
:10015000006400222146304603F0C5FD4FF4FA75D5
:10016000284603F0CBFC01222146304603F0BBFDBC
:10017000680003F0C3FCF6A006F052FE284603F028
:10018000BDFCF5A006F04CFE284603F0B7FCF6A235
:10019000F8A1FBA006F044FE284603F0AFFC03F0F4
:1001A00061FAFD4C01462070FCA008F0A1FD02F0B0
:1001B000AFFA20700146FDA008F09AFD284603F032
:1001C0009DFC00F01DFB00F01EFC05F042FFBDE8A9
:1001D000704006F051B810B5F8A006F021FE4FF4BB
:1001E000FA74204603F08AFC204603F087FCF7A04F
:1001F00006F016FEF949FBA00A68F949096806F0FD
:100200000FFE204603F07AFC204603F077FC2046E0
:1002100003F074FC204603F071FCF9A006F000FE28
:10022000204603F06BFC204603F068FCF8A006F0C3
:10023000F7FD204603F062FC204603F05FFC06F069
:10024000A5FFBDE81040F9A006F0EABD10B5C2A0B8
:1002500006F0E6FD4FF4FA74204603F04FFCC2A20C
:10026000C4A1C7A006F0DCFD2046BDE8104003F0A5
:1002700045BC10B5D1A006F0D3FDC82003F03EFC6C
:10028000D2A006F0CDFDC82003F038FC45F275324F
:10029000E8A1D4A006F0C4FDC82003F02FFCD8A02C
:1002A00006F0BEFDC82003F029FCBB490120C87040
:1002B00010BD10B5E44803F045FE05F055FF06F00B
:1002C00003F808B105F04AF900F0FCFB00F0F2FA7F
:1002D000BDE8104005F0D5BF86B0FFF711FFAE496D
:1002E000DFF864B301200BF1140B0BF5FA6A4FF041
:1002F00000098846C860D5488078012810D098F851
:100300000200444601280BD007F088FD84F80490D1
:10031000CE4C94F9030001287ED000287DD0E6E081
:1003200098F9040010B101280BD018E0DAF8401653
:1003300042F21070814212D307F06DFD012188F85E
:100340000410DAF8401642F21070814207D207F02A
:1003500065FD88F80490C8F81490C8F81090BC4D5A
:10036000002464205A46564606EB800356F82010B7
:10037000A3F5805302EB8007C3F8701EA7F58057E2
:1003800052F82030C7F8703EA94200D20D46A14273
:1003900000D90C46401CB0F5FA7FE5DB4FF4C87776
:1003A0000AEB870050F8046CAA48D0F80411012920
:1003B000FBD003A9072007F0A7FC9DF80C009DF8CF
:1003C0000D108007800B40EA01209DF80E100843B5
:1003D0004AF827009DF80F109DF810208907890B17
:1003E00041EA02219DF8112011434BF82710B04239
:1003F0001BD9801B08F008FA0646601B08F004FAB7
:100400000146304608F00EF8934907F0D9FF08F08E
:1004100011FAD8F8182001E047E058E0101AC8F89F
:1004200018001CD5C8F8189019E0301A08F0ECF93B
:100430000646601B08F0E8F90146304607F0F2FF77
:10044000854907F0BDFF08F0F5F9D8F818201044E9
:10045000C8F81800FF2802DDFF20C8F818007F1C2C
:10046000B7F5FA7F9CDB4C4A4446921D02F10E011F
:10047000501E8DE80700794A0B1FA2F5FA60D8F8E4
:10048000081007F0EDF96069002801DAC4F814904B
:100490002069002802DA4846C4F81090401E5E2801
:1004A000BFF436AF5F20206132E798F8010045467F
:1004B000E8B94FF4FA7003F021FBE078012816D177
:1004C0006878A0B9FFF787FE012068700FE098F800
:1004D0000100454601280AD14FF4FA7003F00EFBE3
:1004E000E07820B96878012801D185F8019094F965
:1004F0000500012801D078B11DE0594D2878D0B908
:100500004FF4FA7003F0FAFA6079012813D12878D1
:1005100088B9012028700EE0514D287801280AD1B1
:100520004FF4FA7003F0EAFA607920B928780128CC
:1005300001D185F80090E07901287FF4DCAE91E0EC
:1005400041542B524F4C453D5300000000080140E0
:1005500041540D0A0000000041542B43574D4F44B5
:10056000453D310D0A000000383838383838383801
:100570000000000043554D545F4170657800000055
:1005800041542B43574A41503D222573222C2225AA
:1005900073220D0A00000000000000204D50555F3E
:1005A0004552524F52313A25640000004D50555F7C
:1005B0004552524F52323A256400000041542B43B9
:1005C00049504D4F44453D310D0A000041542B43E5
:1005D00049504D55583D300D0A000000A40100203F
:1005E000A001002041542B43495053544152543DE3
:1005F00022544350222C222573222C25640D0A00FC
:1006000041542B43495053454E440D0A000000000D
:1006100047455420687474703A2F2F6367692E69B8
:100620006D2E71712E636F6D0D0A00002B2B2B0D3B
:100630000A000000353932307238396D38392E7A77
:100640006963702E66756E00CC0100205413002083
:10065000FFFF03000080214200007F43B00900201B
:100660004001002098F80200454600287FF443AE80
:100670004FF4FA7003F042FAE0790128F6D1A87835
:100680000028F3D1E8780028F0D10120A870FFF706
:10069000F0FD30E67047FEE7FEE7FEE7FEE7704755
:1006A00070477047704700000CB500224C4800921C
:1006B0000192016841F4803101604FF4A063016848
:1006C00001F4003101910099491C0091019911B97F
:1006D00000999942F3D10168890333D50121019131
:1006E00040490A6842F010020A600A6822F00302D8
:1006F0000A600A6842F002020A604168416041688B
:100700004160416841F480614160416821F47C119D
:100710004160416841F4E8114160016841F0807135
:10072000016001688901FCD5416821F00301416045
:10073000416841F0020141604168C1F38101022931
:10074000FAD10CBD01920CBD254810B5016841F0ED
:10075000010101604168244A114041600168234A57
:1007600011400160016821F480210160416821F499
:10077000FE0141604FF41F018160FFF795FF1C49A6
:100780004FF00060086010BD154A10B55068194B55
:1007900010F00C01184803D0042901D0082901D019
:1007A000036012E05168536801F470114FF00204C5
:1007B00013F4803F04EB914102D053689B0301D5B1
:1007C0000E4B00E00B4B5943016051680A4AC1F3DC
:1007D0000311121D515C0268CA40026010BD000086
:1007E00000100240002002400000FFF8FFFFF6FE6C
:1007F00008ED00E000127A002000002000093D0012
:1008000038B501211C2003F0E8FB0121084603F064
:10081000E4FB0121344803F083FA0820ADF800001E
:1008200010248DF803400320304D8DF802006946F6
:10083000284603F0EAF90821284603F052FAE002BC
:10084000ADF800008DF803406946294803F0DDF952
:1008500038BD284A10B5D278002A07D138B101280E
:1008600004D1254C217005F0CCF9606010BD224CFC
:10087000083CF7E720480838007818B91E48007887
:10088000002800D00120704770B5044600781B4D49
:1008900058B105F0B6F96168401A2178884204D34E
:1008A0000020C5F88C01207002E00120C5F88C0101
:1008B000207870BD104810B50D210838FFF7E4FF0F
:1008C000BDE810400D210C48DEE710B500221146AE
:1008D0000120FFF7BEFF002211461046FFF7B9FFC7
:1008E000BDE81040E6E7000000023000000C0140C7
:1008F00000080140A01300203C000020008021429D
:1009000010B505F0EBFC1B48C07838B1A02006F00C
:1009100032F8C020BDE8104006F02DB8A12006F046
:100920002AF8C820F6E705F0DBBC2DE9F041124CAF
:10093000104F002606F1B000C0B206F01CF80020EF
:1009400006F019F8102006F016F80025787800282F
:1009500014F8010B01D0C043C0B206F03EF86D1C84
:10096000EDB2802DF2D3761CF6B2082EE2D3BDE8AC
:10097000F0810000A01300204400002070B50D4657
:10098000044688B00121022003F030FB012104203D
:1009900003F023FB4022ADF81C2018218DF81F1016
:1009A00003205F4E8DF81E0007A9304603F02DF995
:1009B0004021304603F095F9ADF81440ADF81050E1
:1009C0000024584DADF81640ADF8124004A9284651
:1009D00003F0D6FD7021ADF800100120ADF8020043
:1009E0001920ADF80600ADF808406946284603F026
:1009F00000FE0121284604F075F80021284604F085
:100A000067F808B070BD40F29F513220B6E770B56C
:100A1000454D14460E462A78049993422ED3F6B1DA
:100A20002B70A960688005F0ECF868603D4D41F2DC
:100A30008831012E17D03D48012C20D0022C20D027
:100A4000032C20D002224CF25030B0FBF6F4E2B17D
:100A5000012A2BD0022A2BD0032A19D12AE0BDE883
:100A6000704000F049B8284604F035FA00212846C5
:100A700004F02EF82E490020C1F8980170BD027ACA
:100A8000E1E7427ADFE7827ADDE7284604F023FADD
:100A90002146284604F01BFA0021284604F015FAE6
:100AA0002846BDE87040012104F012B8E108ECE7E7
:100AB000A108EAE76108E8E71B484088002800D061
:100AC0000120704710B5184C6088002813D005F03D
:100AD00098F86168401A618888420CD300F00CF8DD
:100AE000FF2232210120FFF7B4FEA068002802D0C7
:100AF000BDE81040004710BD10B50A4C41F28831E6
:100B0000204604F0E8F90021204603F0E1FF0849FF
:100B10000020C1F8980104494880087010BD000009
:100B2000000801400004004048000020A0130020FD
:100B3000000021425E490A885206FCD55C4AC1B2D7
:100B4000121D1180704770B5054686B0012144F230
:100B5000040003F042FA4FF40070ADF810000324D3
:100B60008DF812401820534E8DF8130004A930461A
:100B700003F04BF83015ADF8100004208DF8130089
:100B800004A9304603F041F825208DF814008DF8B3
:100B900015408DF8164001208DF8170005A803F0C8
:100BA00004FC0020ADF80400ADF80600ADF8080024
:100BB000ADF80C000C203E4CADF80A0000956946DB
:100BC000204603F089FA012240F22551204603F025
:100BD00000FB0121204603F0F2FA06B070BD0FB40D
:100BE000354870B505AA049908F0A6F8324807F010
:100BF00072FB2F4A11884906FCD52D4D00212E4C41
:100C00002D1D05E0635C2B8013885B06FCD5491C19
:100C10008142F7D370BC5DF814FB2DE9F041274DFC
:100C20000024234FAC6001266C606E7040F22551A9
:100C3000384603F085FB002815D0214800780028AD
:100C4000384612D003F015FB297840B201291DD097
:100C50000D282BD0184A6988E03A5054491C88B2B4
:100C60006880C72810D8BDE8F08103F002FB124A63
:100C70006988183A505492F900005B3004D1491C3D
:100C800088B268801528EED96C80ECE70A28FBD181
:100C900009492C706C80E0390AA006F0C1F8BDE863
:100CA000F0410548C821E03807F0ECBA2E70DAE7C9
:100CB000003801400008014060120020540000206C
:100CC0004001002025730D0A0000000070B55B484C
:100CD0000024016821F470010160016841F4000101
:100CE0000160574D04E0641CE4B2012002F0EFFE05
:100CF000D5F8340110B1642CF5D30DE0642C0BD27F
:100D0000002404E0641CE4B2012002F0E0FED5F807
:100D1000340118B1642C04D3012070BD642CF1D3CC
:100D2000FAE7002070BD454810B5016821F4700154
:100D30000160016841F440110160414C0020C4F899
:100D4000B401142004F5DA7402F0D8FE012020600A
:100D5000BDE810401E2002F0BABE08B501210820EF
:100D600003F03BF94FF40050ADF8000010208DF86F
:100D7000030003208DF8020030486946001F02F08E
:100D800044FFFFF7D0FFFFF7A1FF08BD70B50024B7
:100D90002B4D04E0641CE4B2012002F098FED5F86B
:100DA000340108B1642CF5D3002404E0641CE4B2DF
:100DB000012002F08CFED5F8340108B9642CF5D37B
:100DC000282002F084FED5F83401002800D001204C
:100DD00070BD70B5002004464006050EFFF7D6FF33
:100DE000641C2843E4B2082CF6D370BD2DE9FC4105
:100DF0000E460746FFF797FFFFF768FF10B1012087
:100E0000BDE8FC8100246D46FFF7E3FF2855641C14
:100E1000E4B2052CF8D39DF800009DF801109DF870
:100E2000033042189DF802100B441A449DF8043018
:100E30009A4201D1307039700020E1E7040C014082
:100E40000080214270B5012190B0084603F0BCF843
:100E50000121480203F0C1F8484E304604F008FA78
:100E600047480090474801A90024012581E8310046
:100E700028020494CDE905408000079020200890C6
:100E80000002CDE909046946304604F05EFA01210A
:100E9000304604F084FA8DF830400B948DF83150D0
:100EA0004FF46020CDE90D04354C8DF83C504C3C9E
:100EB0000BA9204604F060F84FF4404003F021F8FD
:100EC000052301220421204604F0D6F80121204602
:100ED00004F084F80121204604F076F8204604F05E
:100EE00090F8204604F092F80028FAD1204604F049
:100EF00094F8204604F096F80028FAD10121204603
:100F000004F097F810B070BD08B50121042003F07B
:100F100064F81020ADF8000000208DF80300694649
:100F2000194802F072FEBDE808408BE770B5154C19
:100F3000A41E608807F068FC0546E06013496068FD
:100F400007F070FA07F0C2FC0022114B07F055FBC6
:100F5000104A114B07F057FB0022104B07F0ACFA78
:100F600007F0C7FC0146A060284607F05BFA206145
:100F7000284607F078FC208070BD00000800024081
:100F80004C24014066000020000801400000204180
:100F9000000039407B14AE47E17A943F0000F03FF7
:100FA00070B5044686B00121082003F016F801212F
:100FB000880403F01BF84FF40060ADF81000042023
:100FC000534E8DF8130004A9304602F01EFE301572
:100FD000ADF8100003258DF8125018208DF813007D
:100FE00004A9304602F011FE0020ADF80400009480
:100FF000ADF80600ADF80800ADF80C000C20454C2B
:10100000ADF80A006946204603F066F8012240F276
:101010002551204603F0DDF80121204603F0CFF8EA
:101020004FF4A06003F0BCF927208DF814008DF870
:10103000155002208DF8160001208DF8170005A824
:1010400003F0B3F906B070BD0FB4334870B505AA0C
:10105000049907F071FE304807F03DF92D4A1188D8
:101060004906FCD52B4D00212B4C2D1D05E0635C62
:101070002B8013885B06FCD5491C8142F7D370BCDA
:101080005DF814FB2DE9F041234D0024083D214F6C
:101090002C610126EC60AE7040F22551384603F019
:1010A0004FF9002814D01D4800780028384611D088
:1010B00003F0DFF8297840B201291BD00D2824D095
:1010C00069896A1C5054491C0804000C68810FD1BE
:1010D000BDE8F08103F0CDF8114A6989505492F9C6
:1010E00000005B3004D1491C88B268811728EFD911
:1010F0006C81EDE70A28FBD107492C706C81C91F70
:1011000008A005F08DFE6C70E2E72E70E0E70000AD
:10111000000C0140004800408000002040010020F9
:101120005413002025730D0A00000000F8B5FE4C92
:101130000023224694F82460D2E900125D1E56B1C5
:1011400090B102200DE01078C97B6B46012202F0BD
:101150004FFB60B90DE0A67A4EB128B1607C58B95A
:1011600001208DF80000EEE78DF80030EBE728460F
:10117000F8BD9DF8000060740020F8BD38B500246B
:10118000E94D18E02868C27AA24212D0407DA04200
:101190000FD008786B460122214602F0A4FA10B164
:1011A0004FF0FF3038BD9DF800202146DFA007F04A
:1011B0009FFD641CE4B269680879A042E2D800206F
:1011C00038BDD94A30B40B4611684FF0FF34CD7AA0
:1011D000854206D0497D814203D051680A79824216
:1011E00002D8204630BC70470C780146204630BCFF
:1011F000012202F078BA38B5CB4D044695F82300A9
:10120000A04201D1002038BD0CB1302000E0002008
:101210008DF80000A87C28B19DF8000040F0020085
:101220008DF8000095F8220028B19DF8000040F0EC
:1012300080008DF8000028686B460122017D6868F7
:10124000007802F0D5FA10B14FF0FF3038BD85F8C4
:101250002340D7E7F8B5044610F0700F4FF00006B2
:1012600001D0012004E014B18DF8006002E04020BC
:101270008DF80000AC4D6B4601222868817C6868BF
:10128000007802F0B5FA4FF0FF3760BB9DF8000020
:1012900020F0400028738DF80060600602D404201E
:1012A0008DF80000A00605D49DF8000040F0020073
:1012B0008DF80000E00605D49DF8000040F0010024
:1012C0008DF80000200705D49DF8000040F038009C
:1012D0008DF8000028686B460122C17C68680078A0
:1012E00002F086FA10B1AE723846F8BD24B1082C6F
:1012F00002D00020FFF77FFFAC722E75322002F083
:10130000FDFB0020F8BDF8B5874D0446A87CA0423F
:1013100001D10020F8BD84484FF0FF366B46D0E97C
:1013200000104FF001020979007834B302F0DBF9C4
:10133000D8BB9DF800006B4620F020008DF800001F
:101340002868012201796868007802F051FA60BBD0
:10135000032002F0D3FB02208DF8000095F8220054
:1013600070B382202AE028686B460122017D6868FC
:10137000007802F03DFAC0B92DE002F0B4F9A0B94E
:10138000A87AC0079DF8000002D040F0200001E0DC
:1013900020F020008DF8000028686B4601220179BA
:1013A0006868007802F024FA08B13046F8BD0320DE
:1013B00002F0A4FB95F8220000B180208DF8000017
:1013C00095F823000028CED09DF8000040F03000B2
:1013D0008DF80000C7E7AC749BE7F8B5524D4FF0AD
:1013E000FF36A87A00287CD000248DF800402868B9
:1013F0006B460122C17B6868007802F0F9F9002889
:101400006FD128686B46012241796868007802F044
:10141000EFF9002865D128686B46012201796868D8
:10142000007802F0E5F900285BD195F82400E0B3DC
:101430000C208DF8000028686B460122017968684D
:10144000007802F0D5F900287DD1322002F056FB59
:10145000C0208DF80000A87AC00702D0E0208DF8E7
:10146000000028686B46012201796868007802F064
:10147000BFF9002867D1687C18B102208DF8000000
:1014800001E08DF8004028686B460122C17B686846
:10149000007802F0ADF920BB8DF8004028686B465B
:1014A00001224179686800783DE0FFE704208DF86B
:1014B000000028686B46012201796868007802F014
:1014C00097F970B9A87C88B9A87AC0070ED06020B7
:1014D0008DF8000028686B46012201796868007861
:1014E00000E02BE002F084F940BB01E04020EFE790
:1014F000322002F003FB687C18B101208DF8000057
:1015000001E08DF8004028686B460122C17B6868C5
:10151000007802F06DF988B92868034B4179686852
:101520001033012200780AE08C0000202523357852
:101530003A20252335780D0A0000000003E002F070
:1015400057F9002800D03046F8BD2DE9F0410026BB
:1015500020F00104FE4D95F8240010B10020BDE8F4
:10156000F081A87A4FF0FF3838B120402F7C2874E2
:10157000A04200D0464624B901E04046EFE7287D6E
:1015800040B10120FFF7D2FD3CB1FFF726FF20B1AB
:101590002F74F2E70020FFF7C9FD3046DFE738B5CA
:1015A000EB4C4FF0FF35A17A31B3BC2801D30120B9
:1015B00010E0622801D302200CE02A2801D3032086
:1015C00008E0142801D3042004E00A2801D30520F0
:1015D00000E006208DF80000E07A9DF800108842B7
:1015E00001D1002038BD20686B46012281786068F7
:1015F000007802F0FDF808B1284638BD9DF80000DB
:10160000E072EEE72DE9F84304464FF0FF39282851
:1016100044D80727CE4D00267CB10120FFF7EBFD13
:1016200020208DF800004FF00108012C17D0052C68
:1016300018D88DF8018005201FE00020FFF7DBFDA2
:101640008DF800608DF8017028686B460222817C5D
:101650006868007802F0CCF800BB2E7529E08DF8A0
:101660000160E8E7142C04D802208DF801000A205C
:1016700003E003208DF801001420FFF790FF9DF890
:1016800001006B4607EB80108DF8010028680222EC
:10169000817C6868007802F0ABF810B14846BDE87C
:1016A000F8830820A8722E7385F814800020FFF7B5
:1016B0004CFF0020F3E7F8B5A54D04464FF0FF3787
:1016C000A87A28B395F8240010BB287D48B12CB126
:1016D000282C03D8E0B2FFF795FF24E00020FFF7A5
:1016E00091FF4FF47A76042C01D2042402E0B44234
:1016F00000D93446B6FBF4F0401E8DF8000028688F
:101700006B46012241786868007802F071F808B1F0
:101710003846F8BD9DF80000401CB6FBF0F0E881AB
:101720004008FFF73CFF0020F8BD38B5884C4FF06B
:10173000FF35A17A19B3022806D0042806D008285C
:101740000ED010281BD10DE0002000E008208DF8FD
:101750000000607A9DF80010B0EBD10F04D005E0D6
:101760001020F4E71820F2E7002038BD20686B460F
:101770000122C1796068007802F03AF808B1284681
:1017800038BD9DF80000C0086072EDE738B5704CB8
:101790004FF0FF35A17A31B3FA2809D0B0F5FA7FBE
:1017A00008D0B0F57A7F0FD0B0F5FA6F1BD10DE0FD
:1017B000002000E008208DF80000207A9DF800103D
:1017C000B0EBD10F04D005E01020F4E71820F2E7C9
:1017D000002038BD20686B4601228179606800785E
:1017E00002F006F808B1284638BD9DF80000C00890
:1017F0002072EDE72DE9FC41554C80208DF800006A
:1018000020686B460122817C6068007801F0F0FF5F
:10181000642002F073F900258DF8005020686B46B3
:101820000122817C6068007801F0E2FF6F1E0028D1
:1018300070D120686B460622817D6068007801F0D7
:1018400052FF002866D19DF805009DF80310C007DF
:10185000400F01F0010140EA41019DF801004FF005
:10186000010600F00100014309D0012905D0022939
:1018700015D038A007F03CFA4CE0E67410E0206880
:101880006B460122C1786068007801F02CFF40BBF4
:101890009DF8000010F00F0020D0042822D0E5743D
:1018A000FF2004F80A0F4FF6FF7104F8020C04F849
:1018B000010C6070A180A0712072A67026766576FA
:1018C000E572A572E56025616561A576E576A5837B
:1018D0004FF4FA60FFF75AFF18B907E0274807F0FE
:1018E00007FA17E026A007F003FAC6E70220FFF781
:1018F0001CFF78B92A20FFF752FE58B93220FFF7B3
:10190000DAFE38B90020FFF720FE18B90020FFF7F3
:10191000FAFC10B13846BDE8FC810020FFF79AFCC4
:101920000020F8E770477CB5044609484FF0FF35C2
:10193000817A11F0700F08D0016840686B46097B0E
:101940000078062201F0CFFE08B128467CBD27E0D2
:101950008C000020556E737570706F727465642012
:10196000736F6674776172652070726F64756374EB
:10197000207265762025642E0A00000058B6000803
:1019800048616C662073656E7369746976697479F1
:10199000207061727420666F756E642E0A000000FC
:1019A000BDF8000040BA2080BDF8020040BA608057
:1019B000BDF8040040BAA0800020C7E77CB504460B
:1019C000FE484FF0FF35817A090708D50168406865
:1019D0006B46497B0078062201F085FE08B1284657
:1019E000B4E7BDF8000040BA2080BDF8020040BA5C
:1019F0006080BDF8040040BAA0800020A6E7F8B5DA
:101A0000EE4C07464FF0FF35A07A40B120686B4698
:101A10000222817B6068007801F065FE08B12846EB
:101A2000F8BDBDF80000646840BA05B2E08806F071
:101A3000EBFE0646B4F9080006F0DDFE0446284633
:101A400006F0D9FE214606F0B5FC314606F0EAFC68
:101A5000DB4906F05DFC102106F022FD06F0EAFEEF
:101A600038600020F8BD2DE9FC4104004FF0FF383C
:101A700062D0206820B9606810B9A06800285CD0E6
:101A8000CE4F03226B4678681146007801F02BFE9A
:101A9000F0BB9DF80010082000EB111101F00F02BF
:101AA0009DF801109DF8023000EB111100EB1310AE
:101AB000236840325B0093FBF2F216B2626801F0D9
:101AC0000F015200403192FBF1F10DB2A16800F01C
:101AD0000F004900403091FBF0F004B27868062214
:101AE0006B460078114601F0FEFD88B9BDF8000094
:101AF000BDF8021040BABDF804203044030A49BAC8
:101B000052BA8DF80030294422448DF8010000E0DB
:101B100012E0080A8DF80200100A8DF804008DF812
:101B200003108DF80520786806226B460078114670
:101B300001F05EFE002800D04046ECE69F49097A9D
:101B400039B1012907D002290AD003290BD000217D
:101B500003E0FA2101E04FF4FA71018000207047A0
:101B60004FF47A71F9E74FF4FA61F6E7934A517A44
:101B700041B1012908D002290FD003290FD04FF01D
:101B8000FF307047022100E004210170D17C11B1C7
:101B9000017849000170002070470821F5E7102105
:101BA000F3E78649C97A072913D2DFE801F0120466
:101BB000060A0C0E1000BC2100E06221018000200A
:101BC00070472A21FAE71421F8E70A21F6E70521F0
:101BD000F4E70021F2E7794991F8242012B14FF09F
:101BE000FF307047C98901800020704700210180C3
:101BF000481E70474FF0FF3070477049097A41B175
:101C0000012908D002290AD003290AD04FF0FF3059
:101C100070476C4900E06C490160002070476B49D7
:101C2000FAE76B49F8E7654A517A41B1012909D0D1
:101C3000022911D0032912D04FF0FF3070474FF422
:101C4000804101E041F69C710180D17C11B1018895
:101C500049080180002070474FF48051F4E74FF4A9
:101C60000061F1E75549097C017000207047534934
:101C7000897A01B1012101700020704738B505460D
:101C80004E484FF0FF34817A41B1016840686B469D
:101C9000097C0078022201F026FD08B1204638BDFB
:101CA000BDF8000040BA2880002038BD2DE9FE4F65
:101CB000884642498146002491F824001E46254664
:101CC0004FF0FF3BD0BB00203070887AB0B3087C67
:101CD000A0B3420600D50224820600D5A41CC20689
:101CE00000D5A41C000700D5A41D8A460968DAF8AF
:101CF00004006B46897A0078022201F0F4FCE8B90E
:101D0000BDF8000047BAA74264D3DAF8040041885E
:101D1000B7EB510F13D9DAF8001000786B46497C05
:101D2000012201F0E0FC48B99DF80000C00606D58C
:101D3000FFF753FB6FF00100BDE8FE8F0AE0DAF811
:101D40000010DAF804006B46C97A0078224601F0E8
:101D5000CAFC08B15846EFE7B7FBF4F00C99401EF7
:101D6000087000203070ACB39AF8101050460A0783
:101D7000694613D5BDF80020062552BAA8F8002000
:101D8000BDF8022052BAA8F80220BDF8042052BAC9
:101D9000A8F80420327842F008023270A5420CD034
:101DA000027C520609D54A19AD1C128852BAA9F80C
:101DB0000020327842F0400232700CE08C000020AB
:101DC00000000C420000034300008342333303420F
:101DD000333383411DE0A5420CD0027C920609D525
:101DE0004A19AD1C128852BAA9F80220327842F082
:101DF00020023270A5420CD09AF81000C00608D517
:101E00004819008840BAA9F80400307840F0100062
:101E10003070002090E72DE9F843FA4E054617464A
:101E200096F8240089464FF0FF3888B3B07A78B32B
:101E300030686B460222817A7068007801F053FCAA
:101E400030BBBDF8000044BAAC4202D2002038706A
:101E50001EE070684188B4EB510F10D931680078EA
:101E60006B46497C012201F03EFC88B99DF80000D8
:101E7000C00604D5FFF7B1FA6FF001000FE4306837
:101E8000EAB24B46C17A7068007801F02CFC08B1C8
:101E9000404604E4B4FBF5F0401E3870002009E42D
:101EA000D84981F82200002070472DE9FE4F0546F1
:101EB0000120D44E8DF800004FF000088DF801800D
:101EC00030680C461746817C70686B4602220078A9
:101ED00001F08EFC4FF0FF3A00287AD1C82001F0C3
:101EE0000DFE8DF8008030686B460122C17B706862
:101EF000007801F07DFC0028EFD130686B460122AC
:101F000041797068007801F073FC0028E5D13068F1
:101F10006B460122817C7068007801F069FC002822
:101F2000DBD130686B460122C17D7068007801F01A
:101F30005FFC0028D1D130686B46012201797068BE
:101F4000007801F055FC0028C7D14FF00C098DF83E
:101F5000009030686B46012201797068007801F0CA
:101F600047FC002835D10F2001F0C8FDB06A6B4650
:101F70000122407A8DF8000030688178706800781E
:101F800001F036FC002824D1B06A6B460122007AA9
:101F90008DF80000306841787068007801F028FC06
:101FA000002873D1B06A807A0FB140F0E0008DF85C
:101FB000000030686B46012281797068007801F07A
:101FC00017FC002862D12FB1B06AC07A40F0E0005F
:101FD00001E049E018208DF8000030686B460122CE
:101FE000C1797068007801F003FCE8BB17B1C82024
:101FF00001F084FD40208DF8000030686B4601221E
:1020000001797068007801F0F3FB68BB78208DF8E7
:10201000000030686B46012241797068007801F059
:10202000E7FB08BB322001F069FD8DF800803068C5
:1020300047466B46417970680122007801F0D8FB71
:1020400090B931687068B046897A00786B46022290
:1020500001F049FB40B9BDF80000AF6040BAB0FBE9
:10206000F9F0C6B26F6000E010E02F60A760676013
:102070002760002738E0D8F80010D8F804006B4635
:10208000C97A00780C2201F02EFB08B1504653E6C5
:10209000BDF80000236840BA02B2BDF802001A443D
:1020A00040BA01B2BDF804002260626840BA11442F
:1020B0006160A16800B20844A060BDF806002B680A
:1020C00040BA02B2BDF808001A4440BA01B2BDF8E5
:1020D0000A002A606A6840BA11446960A96800B2BF
:1020E00008447F1CFFB2A860B742C4D3286883228B
:1020F000C117090441EA10410004002306F078F8F2
:102100003246002306F074F8286068688322C117FD
:10211000090441EA10410004002306F069F8324640
:10212000002306F065F86860A8688322C1170904D7
:1021300041EA10410004002306F05AF83246002319
:1021400006F056F8A86020684FF40065C11709042E
:1021500041EA104100042A46002306F049F83246BD
:10216000002306F045F8206060682A46C11709047C
:1021700041EA10410004002306F03AF832460023F9
:1021800006F036F86060A0682A46C117090441EAE3
:1021900010410004002306F02BF83246002306F01D
:1021A00027F8A060002802DDA0F5803001E000F5EE
:1021B0008030A0600020BFE538B5124C94F82410A0
:1021C00081421DD0002510B394F82500E0B1002015
:1021D000FEF7ACFF0020FFF796F8E08CFFF76BFAF4
:1021E0008DF8005060686B4601220078232101F0D1
:1021F000FFFA012084F82400FEF798FFFFF7EDF8BE
:10220000002038BD8C0000204FF0FF30F9E700209F
:10221000FEF78CFF207C8DF8000060686B46012281
:102220000078232101F0E4FA84F82450E6E72DE950
:10223000F047F94E82468AB096F824000F4620B146
:102240000020FFF7B9FF012500E0002507A8FFF7F0
:1022500075FC06A8FFF78AFC09A8FFF7A2FC08A8EE
:10226000FFF7B9FC96F80A9096F810800024002237
:1022700039465046FFF719FE10B1641C022CF6DBFC
:10228000022C1AD00024012203A96846FFF70DFE94
:1022900010B1641C022CF6DB022C0ED003A93846C8
:1022A00000F04DFBC7B26946504600F080FB10F0CD
:1022B000FF0F4FF0000402D002E0002403E00124ED
:1022C0000FB944F00204FF2030727072F0724FF6C2
:1022D000FF71F181B072307401203073BDF81C00C1
:1022E000FFF754FA9DF81800FFF71FFABDF8240015
:1022F000FFF755F9BDF82000FFF7DDF94846FEF776
:10230000A9FF4046FFF721F915B10120FFF754FF5F
:102310000AB02046BDE8F087F8B517000D464FF02B
:10232000FF341FD0BC4EB17AE1B1010A8DF8001024
:10233000C0B28DF80100411970684289914211D8EC
:10234000316800786B46097E022201F051FA48B9E3
:102350003068EAB23B46417D7068007801F048FA87
:10236000002800D02046F8BDF8B517000D464FF004
:10237000FF341FD0A84EB17AE1B1010A8DF80010E8
:10238000C0B28DF80100411970684289914211D89C
:10239000316800786B46097E022201F029FA48B9BB
:1023A0003068EAB23B46417D7068007801F09BF9E5
:1023B000002800D02046F8BD2DE9FF4FDFF858A2D5
:1023C000054685B09AF82500914688464FF0FF3BB8
:1023D000C0BBB8F1000F35D000241FE0281B102827
:1023E00000DD102086B208EB04073A46314620464D
:1023F000FFF792FF30BB6A4631462046FFF7B4FF35
:1024000000BB38463246694605F06CFF20B16FF0DC
:10241000010009B0BDE8F08FA01984B2AC42DDD351
:102420004FEA19208DF810008DF81190DAF80000AD
:10243000544604AB817EDAF804000222007801F0F1
:10244000D7F908B15846E4E7012084F82500089838
:10245000E0840020DDE7704991F82410017000202D
:1024600070474FF0FF3070474FF0FF3070474FF02C
:10247000FF3070472DE9F84F674C0F4604F1160105
:1024800015004FF0FF3B8A464FF000094FF001085E
:1024900077D0B0F5FF5F01D9FF2605E0202801D2F3
:1024A000012601E0C0F3471607B90127282D6AD895
:1024B000607DF0B994F8240028B10020FFF77CFE7D
:1024C00084F8208001E084F820905046FFF736FB26
:1024D00051481830FFF74AFB4F481A30FFF761FBAD
:1024E0004D481C30FFF777FBA07AA0774A48217C43
:1024F000C1770020FEF71AFE0020FFF783F88DF861
:10250000009020686B46012281786068007801F0B5
:102510006FF9002837D140208DF8000020686B4605
:102520000122C17B6068007801F062F950BB8DF830
:1025300000608DF8017020686B460222017A6068A5
:10254000007801F055F9E8B9052001F0D7FA607A72
:10255000072606EBC0008DF8000020686B460122BC
:10256000C1796068007801F043F958B920208DF8EE
:102570000000012D08D0052D0AD840468DF80180B5
:102580000DE01DE01FE04CE048468DF8019006E0AC
:10259000142D01D8022000E003208DF80100C0B204
:1025A00006EB80108DF8010020686B460222817CCA
:1025B0006068007801F01CF928B984F8158027E0DC
:1025C00000200A5C3AB3FF2020726072E0724FF67E
:1025D000FF71E181A072207484F80C80A07FFEF767
:1025E00039FEE08AFFF7D2F8207EFFF79EF8608B75
:1025F000FEF7D5FFA08BFFF75EF8E07FFEF7A5FFA3
:1026000094F8200010B10120FFF7D6FD84F8159052
:102610000020BDE8F88F01E08C000020401C0C2851
:10262000CFD35846F5E710B588B002A905A8FFF743
:10263000FEFD032802D0012008B010BD6846FFF758
:10264000DCFA059806F0D7F800990C4605F0B8FEBC
:1026500006F0F0F80590069806F0CDF8214605F052
:10266000AFFE06F0E7F80690079806F0C4F821469A
:1026700005F0A6FE06F0DEF8079005A800F0DFFAE8
:1026800001A8FFF7D0FABDF8040002994143029176
:102690000399414303910499414302A8049100F036
:1026A00030FB0020C8E790F90010002902DD4FF050
:1026B0000000704702DA4FF00400704790F90110F3
:1026C000002902DD4FF00100704702DA4FF00500EB
:1026D000704790F90200002802DD4FF002007047B9
:1026E00002DA4FF0060070474FF00700704700B560
:1026F0000246FFF7D8FF0346D01CFFF7D4FF43EA9A
:10270000C003901DFFF7CFFF43EA801080B200BDE9
:1027100010B501F0A8F8FFF76DF808B10A2010BD58
:102720007820FEF797FD10F0FF0F01D0012010BDBB
:102730007820FEF70AFF10F0FF0F01D0022010BD35
:102740006420FEF7B8FF10F0FF0F01D0032010BD8A
:1027500000F0F2F910F0FF0F01D0042010BDEC489A
:10276000FFF7C5FF00F0F0F910F0FF0F01D00520D2
:1027700010BD40F2731000F032FD10F0FF0F01D0D9
:10278000062010BD642000F023FB10F0FF0F01D0E5
:10279000072010BDFFF747FF0120FFF70DFD10F0E8
:1027A000FF00F6D0092010BD2DE9F74F8EB00CA91F
:1027B00006A8CDE900010BAB02AA09A907A800F001
:1027C0001BFE10B1012011B024E6BDF81800C005B1
:1027D0007ED5029806F00FF86FF01D04214605F033
:1027E0005FFE8146039806F006F8214605F058FE84
:1027F0008046049805F0FFFF214605F051FE06468D
:10280000059805F0F8FF214605F04AFE82460121B1
:10281000484605F045FE0746314605F0D1FD044621
:102820004FF04041404605F0CBFD0546514605F0CE
:10283000C7FD214605F06CFD06F048F807F028FAC0
:102840004FF0663B5A46B34B05F0DDFE06F051F8FB
:102850000E9908600121304605F022FE31460090B5
:1028600005F0AEFD04462846414605F0A9FD214687
:1028700005F0A0FD4FF07E5105F04AFD06F026F868
:1028800004460D463846414605F09AFD0746514636
:10289000009805F095FD394605F03AFD06F016F86A
:1028A00022462B4607F03CFC5A469A4B05F0ABFEFD
:1028B00006F01FF80F9908605146084605F080FDA4
:1028C00007463146084605F07BFD0546414600E0D7
:1028D00033E0084605F074FD04464946084605F015
:1028E0006FFD214605F014FD294605F063FD3946CC
:1028F00005F060FD05F0EAFF04460D4651464846E6
:1029000005F05EFD07463146404605F059FD394663
:1029100005F0FEFC012105F0C3FD05F0D7FF2246BE
:102920002B4607F0FDFB5A467A4B05F06CFE05F08E
:10293000E0FF10990860002045E7022043E72DE9F9
:10294000FE4F80460F460025684600F092F80024AE
:102950006FF00F0AE946012658F8240057F82410B2
:10296000401A00D5404205F046FF514605F098FD5B
:1029700059F8241011F0FF4F0CD005F053FD4FF023
:102980007E5105F017FD20F00040634905F0CEFFB1
:1029900008D204E0614908446149884202D306FA3A
:1029A00004F00543641C032CD6DB284603E42DE920
:1029B000F84F8246564889462C38002540686B46B9
:1029C000032200780D2100F08EFE08B1072020E6DA
:1029D0009DF80000002400F01F008DF800009DF815
:1029E00001006F4600F01F008DF801009DF8020005
:1029F0004FF0010800F01F008DF802005AF8241073
:102A000059F82400081A00D5404205F0F4FE6FF092
:102A10000F0105F045FD0646385DE8B1414ADFF893
:102A200008B104E05946104605F0CAFC0246385D7C
:102A3000401E10F0FF003855F4D11146304605F025
:102A4000F1FC4FF07E5105F0B5FC20F0004032491A
:102A500005F06CFF08D204E034483044B0F1D97F6F
:102A600002D908FA04F00543641C032CC6DB28468F
:102A7000CFE52DE9FC47054625486B462C38042256
:102A800040680D21007800F02EFE10B10720BDE84F
:102A9000FC879DF800001C2101EAD0029DF803008C
:102AA000DFF88C90C0F301131A438DF804209DF8D1
:102AB0000120C0F3810301EAD2021A438DF80520F8
:102AC0009DF8022000F0030001EAD2010143002436
:102AD000184F8DF80610A04601AE305D10B145F8D4
:102AE000249009E045F824800CE055F8240039468C
:102AF00005F066FC45F82400305D401E10F0FF0034
:102B00003055F2D1641CE4B2032CE6D30020BEE7BA
:102B1000B800002066A64C40295C0F3E666666C180
:102B20009A99D9000000C84154E3853F0000E0BEF7
:102B30007B14AE3E1D5A843FC8234FF48062FE4989
:102B400040F6F630FFF738BC2DE9FF410446FBA004
:102B500002AB00680290FAA000680390F9A0066832
:102B6000F9A0056804F00300195C8DF80010C4F3A7
:102B7000C1015A5C8DF80120C4F381129B5C8DF871
:102B8000023003AB185C8DF80400585C8DF805002A
:102B9000985C8DF806006A46032140F22640FFF754
:102BA000BBFB4FF0FF37E0BB01AA032140F22A40F4
:102BB000FFF7B2FBA8BBCDE9006560070BD59DF818
:102BC000000040F001008DF800009DF8040040F086
:102BD00001008DF80400A0060BD59DF8010040F01F
:102BE00001008DF801009DF8050040F001008DF80E
:102BF0000500E0050BD59DF8020040F001008DF8BE
:102C000002009DF8060040F001008DF806006A46BB
:102C100003214FF48860FFF77FFB10B901AA03215D
:102C200000E004E040F23140FFF776FB18B138468F
:102C300004B0BDE8F081C54804810020F8E7F8B58C
:102C4000C249098901F0030250F822404A0700D521
:102C50006442C1F3C10250F822308A0600D55B42BB
:102C6000C1F3811250F82220C80500D55242B8495C
:102C700084FB0140850045EA947083FB014382FB9D
:102C80000121950F45EA8105010E8DF80010010C18
:102C90008DF80110010A8DF80210A40F8DF80300C1
:102CA00044EA83046A4604214FF47470FFF734FB4E
:102CB0004FF0FF3688B9200E8DF80000200C8DF8FB
:102CC0000100200A8DF802008DF803406A460421B5
:102CD0004FF47570FFF720FB08B13046F8BD280EA1
:102CE0008DF80000280C8DF80100280A8DF80200EC
:102CF0008DF803506A4604214FF47670FFF70CFB01
:102D0000F8BD2DE9FF41044603A8FEF78CFFBDF88E
:102D10000C00420CC3038D48018901F003004D07EC
:102D200054F8200000D54042C1F3C1058E0654F886
:102D3000255000D56D42C1F38116C90554F82640CF
:102D400000D56442A0FB0367C11701FB037100FBC0
:102D50000210810041EA9670A5FB0367E91701FBA9
:102D6000037105FB02118D0045EA9671A4FB036710
:102D7000E51705FB037304FB0232930043EA9672E6
:102D8000030E8DF80030030C8DF80130030A8DF826
:102D900002308DF80300080E8DF80400080C8DF841
:102DA0000500080A8DF80600100E8DF80800100CBA
:102DB0008DF80900100A8DF80A008DF807108DF8BB
:102DC0000B206A460C214FF42570FFF7A5FA2FE778
:102DD00030B504465FA185B007C98DE807004FF004
:102DE000FF35C82C16D8C820B0FBF4F1491E080ADC
:102DF0008DF80C008DF80D1003AA022140F2162068
:102E0000FFF78AFA30B96A460C2140F6C120FFF775
:102E100083FA10B1284605B030BD4C4884810020AB
:102E2000F9E74A4989890180002070472DE9FC4172
:102E3000054640074FF0FF367CD0B1F5C86F79D812
:102E4000084605F0E1FC464905F0ECFA074601A802
:102E5000FEF78CFE9DF80400022806D004280DD051
:102E600008282ED0102865D134E00E21384605F010
:102E700017FB05F0F8FC84B23A4907E00D2138460B
:102E800005F00EFB05F0EFFC374984B2384605F03B
:102E900097FA05F0E8FC210A8DF8001080B28DF851
:102EA0000140010A8DF802108DF80300E8076C4616
:102EB00020D0224602214FF4EA70FFF72DFAC8BB5A
:102EC00011E00C21384605F0EBFA05F0CCFC84B299
:102ED0002649DBE70B21384605F0E2FA05F0C3FC92
:102EE00084B22349D2E7A21C02214FF49270FFF76B
:102EF00013FAF8B9A8070DD56A4602214FF4EC7011
:102F0000FFF70AFAB0B9A21C02214FF49470FFF740
:102F100003FA78B9680731D56A4602214FF4EE709A
:102F2000FFF7FAF930B9A21C02214FF49670FFF7AF
:102F3000F3F91FE01FE0000034A500084CCD6C0041
:102F40000CC92C00365676002646660084130020F5
:102F500009E3CA02FEF2ABC4AAF1DFDFBBAFDFDFD9
:102F600000004843000040460000C04500004045C6
:102F70000000C04410B13046BDE8FC810020FBE7F2
:102F800008B500218DF80010C10702D030218DF85E
:102F90000010810705D59DF8001041F00C018DF857
:102FA0000010400705D59DF8000040F003008DF8A3
:102FB00000006A4601214FF4A470FFF7ADF908BD87
:102FC00008B560B1042800D90420401E8DF8000027
:102FD0006A46012140F24F10FFF79EF908BD01201B
:102FE000F3E70521B0FBF1F008B5010A8DF80010F8
:102FF0008DF801006A4602214FF4EF70FFF78CF95B
:1030000008BD0521B0FBF1F008B5010A8DF80010EC
:103010008DF801006A4602214FF4ED70FFF77CF94C
:1030200008BD4FF47A7290FBF2F008B54843010EE8
:103030008DF80010010C8DF80110010A8DF80210B6
:103040008DF803006A4604214FF4AE70FFF764F96F
:1030500008BD0521B0FBF1F008B5010A8DF800109C
:103060008DF801006A4602214FF4AD70FFF754F964
:1030700008BD0521B0FBF1F008B5010A8DF800107C
:103080008DF801006A4602214FF4AC70FFF744F955
:1030900008BD38B504004FF0FF3506D06A4604215C
:1030A0004FF45870FFF760F908B1284638BD009812
:1030B0009DF8031000BA20F0FF00084320600020B4
:1030C00038BD08B5010E8DF80010010C8DF8011007
:1030D000010A8DF802108DF803006A4604214FF4AE
:1030E0005870FFF719F908BD38B504004FF0FF35E7
:1030F00006D06A4604214FF47170FFF735F908B124
:10310000284638BD009800BA20F0FF019DF8030062
:10311000014301EB810080002060002038BD1421B4
:10312000B0FBF1F008B5010E8DF80010010C8DF820
:103130000110010A8DF802108DF803006A4604217F
:103140004FF47170FFF7E8F808BD08B560B12020B2
:103150008DF8000028208DF8010030208DF8020045
:1031600038208DF8030004E0A3220421684605F00E
:1031700082F86A46042140F69E20FFF7CDF8FEF75C
:103180002CF908BD08B560B1C0208DF80000C22040
:103190008DF80100C4208DF80200C6208DF80300D0
:1031A00004E08B220421684605F065F86A46042194
:1031B00040F69820FFF7B0F8FEF70FF908BD0EB5FE
:1031C0004FF4976308B1E1A000E0E3A007C88DE8E1
:1031D00007006A4609211846FFF79EF80EBD3EB566
:1031E000044602208DF80000CA208DF80100E3207B
:1031F0008DF8020009208DF803006A46042168203A
:10320000FFF78AF8A3208DF80000610609D5C021D8
:103210008DF80110C8218DF80210C2218DF803101D
:1032200005E08DF801008DF802008DF8030014F41C
:10323000C07F09D0C4218DF80410CC218DF8051071
:10324000C6218DF8061005E08DF804008DF8050004
:103250008DF806008DF808008DF807008DF809003C
:103260006A460A2140F6A720FFF756F8A0074FF05C
:10327000D80503D020208DF8000001E08DF8005023
:103280006A46012140F6B620FFF746F8A00601D5B0
:10329000012000E00020FFF792FF14F4C07F1ED051
:1032A000E0050AD5B2208DF800008B208DF80100D2
:1032B000B6208DF802009B2009E0B0208DF80000B8
:1032C00080208DF80100B4208DF8020090208DF848
:1032D00003006A46042140F6A220FFF71DF8E0072C
:1032E0004FF40B6323D0F8208DF800006A460121CB
:1032F0001846FFF711F8FA210720FFF797FD07207E
:10330000FFF73EFE0120FFF75BFE6420FFF769FE3A
:103310004FF4FA70FFF775FEC8219248FFF781FE5F
:103320002820FFF796FE0A20FFF7A3FE06E08DF89F
:1033300000506A4601211846FEF7EEFFA00703D5AC
:10334000D9208DF8000001E08DF800506A46012177
:1033500040F23D70FEF7E0FF600701D5012000E07C
:103360000020FFF70FFFE00601D5012000E000205C
:10337000FFF7EBFE7C4D44F008006881FEF72DF866
:103380000020A873600601D50620A87314F4C07F3E
:1033900002D0A87B801DA87314F0140F02D0A87B64
:1033A0001030A873A00702D0A87B001DA8730020CE
:1033B0003EBD6D49498901800020704700B56BA171
:1033C00087B00EC98DE80E006BA10DF10C0C0EC973
:1033D0008CE80E0040F68223012807D0022803D093
:1033E0004FF0FF3007B000BD6A4600E003AA0B2192
:1033F0001846FEF791FFF5E72DE9FF4F89B0164615
:10340000DDE916520024DFF860810F4681462C80EA
:10341000A24698F80E006946FEF7FDFC4FF0FF3B10
:1034200018B158460DB0BDE8F08FB8F80A0010F09A
:10343000140F3CD0009909BA21F0FF0C9DF803103D
:103440004CEA010CC6F800C0019909BA21F0FF034B
:103450009DF807100B43736002999DF80B2009BA81
:1034600021F0FF011143B160039A9DF80F4012BA99
:1034700022F0FF022243F2604FEA2C4609141B148B
:1034800012147643494303FB036302FB0211194400
:103490001024A1F17061B1F1007F04D9FDF79DFF07
:1034A000A5F800A0BDE7298841F480712980410674
:1034B0006A460ED51119A41D0B885BBA3B804B8858
:1034C0005BBA7B80898849BAB980298841F00801B4
:1034D000298010F4C07F11D01119A41D0B885BBA8C
:1034E000A9F800304B885BBAA9F80230898849BA3C
:1034F000A9F80410298841F070012980800718D0AC
:103500001444E07800F0C00500F03F016078C00787
:1035100007D0C80801F00701D8F80020491C02B103
:1035200090476078000704D5D8F8041009B1A809BD
:1035300088470C98FEF7F6F9002073E70A490860FF
:10354000002070470849486000207047B8AAB38D32
:10355000B4980D355D000000B8AAAAAAB088C3C50A
:10356000C700000009E3CA0284130020D8B1B9F3F0
:103570008BA391B609B4D900DAB1B9F38BA391B694
:10358000DAB4DA0070B50C46054600F080F9D020B8
:1035900000F01EFA00F0B6F950B9284600F018FA0B
:1035A00000F0B0F9204600F013FA00F0ABF918B1C2
:1035B00000F08AF9012070BD00F086F9002070BD8E
:1035C000BC2801D3012110E0622801D302210CE0C4
:1035D0002A2801D3032108E0142801D3042104E0A0
:1035E0000A2801D3052100E006211A20CAE710B5F8
:1035F00004464FF47A70844201D9044602E0042C58
:1036000000D20424B0FBF4F0401EC1B21920FFF731
:10361000B9FF6008BDE81040D2E710B5044600F0DD
:1036200036F9D02000F0D4F900F06CF9204600F013
:10363000CFF900F067F900F02AF9D12000F0C8F9BD
:1036400000F060F9002000F0F3F9044600F03CF9C6
:10365000204610BDC006010E1C2093E7C006010ED7
:103660001B208FE710B500F0FEF880216B20FFF7DC
:1036700089FF4FF4FA7000F041FA00216B20FFF748
:1036800081FF0320FFF7EAFF0020FFF7E3FF32206E
:10369000FFF7ADFF00213820FFF774FF00216A20FB
:1036A000FFF770FF00212320FFF76CFF80213720F8
:1036B000FFF768FF7520FFF7B0FF0446014662A0E0
:1036C00005F016FB682C01D0012010BD01216B20F4
:1036D000FFF758FF00216C20FFF754FFC820FFF7C9
:1036E00086FF002010BD2DE9F0411C4615460F460F
:1036F000064600F0CCF87006000E00F069F900F004
:1037000001F920B100F0E0F80120BDE8F081384671
:1037100000F05EF900F0F6F800F0B9F8012000EBD7
:103720004600C0B200F054F900F0ECF808E0012DBA
:103730000CD0012000F07CF96D1E04F8010BEDB2F5
:10374000002DF4D100F0C0F80020DEE70020F1E702
:1037500008B56B46022241216820FFF7C4FFBDF87F
:10376000000040BA00B205F054F80022384B04F0D3
:10377000BCFF384A384B04F09FFE05F0BAF83749D1
:1037800004F01EFE05F056F800B208BD7CB51446E4
:103790000D4606466B46062243216820FFF7A3FF2D
:1037A00000280BD1BDF8001049BA3180BDF80210D5
:1037B00049BA2980BDF8041049BA21807CBD7CB586
:1037C00014460D4606466B4606223B216820FFF74D
:1037D0008AFF00280BD1BDF8001049BA3180BDF82E
:1037E000021049BA2980BDF8041049BA21807CBD75
:1037F0002DE9F0411D4616460C46074600F047F8F5
:103800007806000E00F0E4F800F07CF818B100F043
:103810005BF8012079E7204600F0DAF800F072F852
:1038200000240BE0285D00F0D3F800F06BF818B12D
:1038300000F04AF8022068E7641CE4B2B442F1D315
:1038400000F042F8002060E772657325780D0A00E9
:1038500000407540A4703D0AD74342400000C84272
:10386000022000F034B908B50121082000F0B5FBB2
:103870004FF44070ADF8000010208DF803000320D5
:103880008DF802006946844800F0BFF908BD70B5A4
:103890008148001D016821F00F010160016841F0BD
:1038A000030101607D4C0120C4F8A001C4F8A4010B
:1038B000022004F5D07400F00AF9002525600220EA
:1038C00000F005F9656070BD734810B5001D016812
:1038D00021F00F010160016841F0030101606F4CAC
:1038E0000020C4F8A401C4F8A001022004F5D0749B
:1038F00000F0EDF8012060602060BDE8104002207B
:1039000000F0E5B870B564480024001D016821F09E
:103910000F010160016841F0080101605F4D01265F
:10392000C5F8A061022000F0D2F8C5F8A461022019
:1039300000F0CDF84FF4FA7107E0641CA4B28C4299
:1039400003D9FFF7C1FF012070BDD5F82001002881
:10395000F3D1C5F8A40170BD70B5504C0025C4F872
:10396000A4514D48001D016821F00F01016001685C
:1039700041F003010160022004F5D07400F0A7F8C3
:103980002560022000F0A3F801206060022000F012
:103990009EF8656070BD70B5404C0026C4F8A46107
:1039A0003D48001D016821F00F010160016841F0F0
:1039B000030101600125C4F8A051022004F5D07470
:1039C00000F085F86560022000F081F8666070BD47
:1039D0002DE9F04105463048001D016821F00F0136
:1039E0000160016841F0030101602C4E0027C6F818
:1039F000A471022000F06BF800244FF001082806A3
:103A000002D5C6F8A08101E0C6F8A0716806050ECF
:103A1000C6F8A481022000F05AF8C6F8A47102206A
:103A200000F055F8641CE4B2082CE8D3BDE8F0813E
:103A30002DE9F047814618480024001D016821F057
:103A40000F010160016841F008010160134E254635
:103A500027464FF00108C6F8A471022000F037F89D
:103A6000C6F8A4816006040ED6F8200108B1641CD3
:103A7000E4B2022000F02BF86D1CEDB2082DEAD361
:103A8000B9F1000F04D0FFF767FF2046BDE8F087CB
:103A9000FFF781FFF9E70000000C014000802142A0
:103AA00010B56FF0040000F0C0FC20482049006809
:103AB000B0FBF1F01F49C0B200EB40020870C2EB4E
:103AC000C0104FF6FF7202EAC000488010BD1949CD
:103AD000097848434FF0E021486100238B61086971
:103AE00040F0010008610869C20701D0C003FAD59F
:103AF000086920F0010008618B6170470D49498811
:103B000048434FF0E021486100238B61086940F091
:103B1000010008610869C20701D0C003FAD508692D
:103B200020F0010008618B61704700002000002038
:103B300000127A00D8000020064880470648004757
:103B4000FEE7FEE7FEE7FEE7FEE7FEE7FEE7FEE74D
:103B5000FEE7FEE749070008ED0000088F4910B5B1
:103B6000884206D10121042000F049FA00210420F6
:103B70003BE08B49884206D10121082000F03FFA42
:103B80000021082031E08749884206D10121102018
:103B900000F035FA0021102027E08349884206D141
:103BA0000121202000F02BFA002120201DE07F4978
:103BB000884206D10121402000F021FA0021402056
:103BC00013E07B49884206D10121802000F017FADA
:103BD0000021802009E0774988420AD1841501211B
:103BE000204600F00CFA00212046BDE8104000F00D
:103BF00006BA10BD10B50121084600F000FA0021F8
:103C0000BDE81040012000F0FAB9F0B5CC780022F0
:103C100004F00F03E40601D58C7823430C784FF0B1
:103C20000F0C14F0FF0F4FF0010E1BD005680E882B
:103C30000EFA02F42640A64210D196000CFA06F7BE
:103C400025EA070703FA06F5CE783D43282E02D071
:103C5000482E02D002E0446100E00461521C082AB0
:103C6000E5D305600A88FF2A1CD94468002202F1C6
:103C700008060EFA06F50E882E40AE420ED19600CA
:103C80000CFA06F7BC4303FA06F7CE783C43282E1D
:103C900000D14561CE78482E00D10561521C082A1A
:103CA000E5D34460F0BD4FF6FF71018002218170C1
:103CB0000421C17070470246002092680A4200D079
:103CC00001207047806880B2704702460020D268A9
:103CD0000A4200D001207047C06880B2704701617D
:103CE0007047416170470AB1016170474161704797
:103CF000C160704741F48032826181618261816973
:103D0000806970472C4B10B51A684FF680742240BA
:103D100042EA00100843186010BD2849C861704786
:103D2000F0B5254C002801DAE36900E06368450D31
:103D30002E0185B2C0F30157B540C0F30342032FF3
:103D400005D0C6020AD503269640B34307E023F008
:103D50007062636823F07063636002E0AB4343F01A
:103D6000706201B12A43002801DAE261F0BD6260AD
:103D7000F0BD10B58A0721F003040F49120F21444A
:103D80000F238C6893409C438C608B689040034366
:103D90008B6010BD0949C1F8DC0070470008014084
:103DA000000C0140001001400014014000180140C7
:103DB000001C0140002001400000014000002042A2
:103DC000A548016841F0010101604168A34A114022
:103DD00041600168A24A11400160016821F480211C
:103DE0000160416821F4FE0141604FF41F018160D0
:103DF000704799490A6822F480320A600A6822F4FE
:103E000080220A60B0F5803F07D0B0F5802F03D143
:103E1000086840F4A02008607047086840F48030CB
:103E2000F9E70346002059098B4A01290AD00229E3
:103E30000AD0516A03F01F02012393400B4200D0C5
:103E4000012070471168F5E7116AF3E718B5002003
:103E50004FF4A06400903120FFF7E3FF0099491C64
:103E60000091A14201D00028F5D03120FFF7D9FF01
:103E7000002800D0012018BD774A116821F0F80110
:103E800041EAC00010607047764908607047724B85
:103E90005A68084322F47C121043586070477149F5
:103EA000086670476C4A516821F003010143516074
:103EB00070476948406800F00C007047664A5168D6
:103EC00021F0F001014351607047634A516821F4C9
:103ED000E0610143516070475F4A516821F46051CD
:103EE00041EAC000506070475B4A0029517A01D016
:103EF000014300E08143517270475A49C1F8D8002C
:103F00007047554A516821F4404101435160704760
:103F10005149002281F8202081F82020012802D078
:103F2000042802D1052081F8200070474E4908601E
:103F3000704749490A6A02430A6270474A4944394C
:103F40000860704730B5444A5168484B11F00C0185
:103F500003D0042901D0082901D0036012E0516880
:103F6000536801F470114FF0020413F4803F04EB26
:103F7000914102D053689B0301D53D4B00E03B4B80
:103F80005943016051680F2303EA1111394B5C5CFE
:103F90000168E14041605468072505EA14241C5D6E
:103FA00021FA04F48460546805EAD4241B5DD940E6
:103FB000C1605268032303EA92322E4B1B1F9A5CA6
:103FC000B1FBF2F1016130BD234A0029516901D0F2
:103FD000014300E08143516170471F4A0029916904
:103FE00001D0014300E08143916170471A4A0029E2
:103FF000D16901D0014300E08143D1617047164A85
:104000000029D16801D0014300E08143D1607047AD
:10401000114A0029116901D0014300E08143116177
:10402000704711494039086070470E49C8647047AD
:104030000949C87170470848416A41F0807141627E
:104040007047054A0146002092680A4200D00120CC
:104050007047014988727047001002400000FFF865
:10406000FFFFF6FE000042428004424200127A0046
:1040700000093D00E0000020C44910B588420AD183
:1040800001218C032046FFF7BAFF2046BDE810400F
:104090000021FFF7B4BFBE49884202D101214C0480
:1040A00010E0BC49884202D101218C040AE0BA49DF
:1040B000884202D10121CC0404E0B84988420AD1E7
:1040C00001210C052046FFF7A3FF2046BDE8104064
:1040D0000021FFF79DBF10BD30B50446008A85B0B2
:1040E0000D464CF6FF710840E98801432182A08902
:1040F0004EF6F3110840A9882A8911436A890243C0
:104100001143A181A08A4FF6FF410840A9890143CC
:10411000A1826846FFF716FF9C48844201D10398AC
:1041200000E00298A189090400EBC00101EB001036
:10413000296801D5490000E08900B0FBF1F0642254
:10414000B0FBF2F109010B096FF018056B4300EBAE
:104150008300A3891D044FF0320306D503EBC00092
:10416000B0FBF2F000F0070005E003EB0010B0FB3D
:10417000F2F000F00F000843208105B030BD4FF48D
:104180001651016000218180C18001810C22428191
:104190008181704710B5028A4FF2FF031A400B88E5
:1041A0004C8823438C88C9880C43234313430382E0
:1041B00010BD0021018041808180C18070470029AD
:1041C000818902D041F4005101E021F40051818144
:1041D000704710B5C1F3421301F01F040121A14043
:1041E000012B07D0022B07D01430002A026805D01B
:1041F0000A4304E00C30F8E71030F6E78A43026027
:1042000010BD002A828A01D00A4300E08A438282DC
:104210007047028A22F00F020282028A0A43028257
:104220007047828922F40062828182890A438281F6
:1042300070470029818902D041F0020101E021F09C
:10424000020181817047028A22F020020282028AE2
:104250000A43028270470029018A02D041F480415A
:1042600001E021F4804101827047C1F3080181809F
:1042700070478088C0F308007047818941F00101D0
:1042800081817047028BD2B20283028B42EA012104
:1042900001837047028B02F47F420283028B0A4340
:1042A000028370470029818A02D041F0200101E099
:1042B00021F02001818270470029818A02D041F0DB
:1042C000100101E021F01001818270470029818AEC
:1042D00002D041F0080101E021F00801818270471D
:1042E0000029818902D041F4004101E0C1F30E01AF
:1042F000818170470029818A02D041F4006101E088
:1043000021F4006181827047828A22F00402828255
:10431000828A0A43828270470029818A02D041F052
:10432000020101E021F00201818270470246002073
:1043300012880A4200D001207047C94301807047AB
:1043400070B501F01F0501260024C1F3421306FADF
:1043500005F2012B0FD0022B0FD0838A4FEA1121D7
:104360000088134206FA01F600EA060001D000B107
:104370000124204670BD8389F0E7038AEEE70A0A2C
:1043800001219140C943018070470000003801407D
:104390000044004000480040004C004000500040F5
:1043A0002849084328490860704730B50F23C27870
:1043B00001780125F2B1244A126801F1E02102F4EA
:1043C000E062C2F5E062120AC2F10404D34042780E
:1043D000A24084781C401443220181F80024007814
:1043E00000F01F018D404009800000F1E020C0F87E
:1043F000005130BD01F01F0085404809800000F1E8
:10440000E020C0F8805130BD104A114001430E48F1
:10441000001F016070470C4A121D0029116801D06D
:10442000014300E08143116070474FF0E021042810
:10443000086903D020F004000861704740F00400D0
:10444000FAE700000000FA050CED00E080FFFF1F16
:10445000F94910B5884202D10121C41486E0B0F1B7
:10446000804F09D0F54988420DD101210220FFF784
:10447000CFFD0021022064E001210846FFF7C8FDBE
:10448000002101205DE0EE49884206D1012104208F
:10449000FFF7BEFD0021042053E0EA49884206D11F
:1044A00001210820FFF7B4FD0021082049E0E6497A
:1044B000884206D101211020FFF7AAFD002110201B
:1044C0003FE0E249884206D101212020FFF7A0FD0C
:1044D0000021202035E0DE49884202D10121441428
:1044E00044E0DC49884202D10121CC043EE0DA49B3
:1044F000884202D101210C0538E0D849884202D116
:1045000001214C0532E0D649884206D101214020E4
:10451000FFF77EFD0021402013E0D249884206D1FA
:1045200001218020FFF774FD0021802009E0CE49A1
:1045300088420AD1841501212046FFF769FD002138
:104540002046BDE81040FFF763BDC849884202D14C
:1045500001210C040AE0C649884202D101214C0421
:1045600004E0C44988420AD101218C042046FFF7A7
:1045700046FD2046BDE810400021FFF740BD10BDBC
:1045800030B50288AC4CB24DA0420DD0A8420BD041
:10459000B0F1804F08D0A94B984205D0A84B984263
:1045A00002D0A84B984203D122F070034A881A43E4
:1045B000A54B984206D0A54B984203D022F44073F5
:1045C000CA881A4302808A8882850A880285A042A6
:1045D0000AD0A84208D0A54A904205D0A44A9042E9
:1045E00002D0A44A904201D1097A01860121818238
:1045F00030BD30B5028C22F001020284028C838827
:10460000048B22F0020224F073050C882C430D89E0
:1046100015434A882A43884DA8420BD08C4DA842A6
:1046200008D0924DA84205D0914DA84202D0914D9C
:10463000A8420DD122F008054A8923F440732A4389
:1046400022F004058A882A438D891D43CB892B4398
:1046500083800483C9888186028430BD70B5028C52
:1046600022F010020284028C8388048B0D8824F4CB
:10467000E6464FF6FF7404EA052535430E8922F01D
:10468000200204EA061616434A8804EA021232435C
:10469000694EB04202D06E4EB04215D122F0800673
:1046A0004A8923F4406304EA0212324322F04006AE
:1046B0008A8804EA021232438E8904EA86061E437F
:1046C000CB8904EA8303334383800583C988018748
:1046D000028470BD70B5028C22F480720284028C58
:1046E0008388848B0D8824F0730425430E894FF64C
:1046F000FF7422F4007204EA062616434A8804EA8C
:10470000022232434C4EB04202D0514EB04215D13B
:1047100022F400664A8923F4405304EA0222324319
:1047200022F480668A8804EA022232438E8904EAEF
:1047300006161E43CB8904EA031333438380858323
:10474000C9888187028470BD70B5028C22F48052C2
:104750000284058C8288838B0C8823F4E6464FF60E
:10476000FF7303EA0424344325F400560D8903EA59
:10477000053535434E8803EA06362E432E4DA842B2
:1047800002D0334DA84205D122F480458A8903EA3C
:1047900082122A4382808483C988A0F8401006844C
:1047A00070BD828B22F440628283828B4FF6FF734E
:1047B00003EA01210A4382837047828B22F00C02B4
:1047C0008283828B0A4382837047028B22F4406289
:1047D0000283028B4FF6FF7303EA01210A4302832F
:1047E0007047F0B5048C24F010040484078B048C0B
:1047F0004FF6FF7527F4734705EA03333B4305EA99
:1048000002221A430C4B05EA011698420ED0104BB7
:1048100098420BD0B0F1804F08D0084B984205D099
:10482000074B984202D0074B984225D124F0200133
:10483000314341F0100124E0002C0140000400400D
:1048400000080040000C0040001000400014004030
:1048500000340140004C0140005001400054014030
:1048600000180040001C00400020004000400140B3
:10487000004401400048014024F0A0030B4343F0F2
:10488000100102830184F0BD028B22F00C0202832E
:10489000028B0A430283704770B5048C24F0010434
:1048A0000484058B048C4FF6FF7606EA031313434A
:1048B00025F0F305F84A2B4390420ED0F74A904278
:1048C0000BD0B0F1804F08D0F54A904205D0F54AA0
:1048D000904202D0F44A904202D124F0020201E058
:1048E00024F00A020A4342F001010383018470BDEF
:1048F0002DE9F84F0D4604460888E74FDFF89CC3C2
:10490000DFF89C83DFF89C934988AA882B894FF0B5
:10491000804A48B304282FD04FF6FF7608289346E4
:1049200032D0208C9E4620F480502084A38B208C93
:1049300006EA0132009223F4734306EA0B221A437B
:1049400006EA0E331343BC420AD0644508D05445EE
:1049500006D0444504D04C4502D0D34A944242D1BB
:1049600020F40050009940E02046FFF795FFE988C9
:104970002046BDE8F84F87E72046FFF732FFE98879
:104980002046BDE8F84F20E7208C20F4807020847A
:10499000B4F81CE0208C06EA031306EA01222EF08C
:1049A000F30E43EA0B0343EA0E030092BC420AD023
:1049B000644508D0544506D0444504D04C4502D047
:1049C000B94A944203D120F40070009901E020F428
:1049D0002060084340F48070A3832084E988204647
:1049E000BDE8F84FE9E620F40240084340F4805067
:1049F000A3832084E9882046BDE8F84FD1E62DE95D
:104A0000F0410C46002649880746012501B90226D7
:104A1000A288012A00D1022520882389002838464F
:104A200010D0FFF7DEFEE1883846FFF7CEFE23897F
:104A30002A4631463846FFF72FFFE1883846BDE861
:104A4000F04121E7FFF728FFE1883846FFF71CFF18
:104A500023892A4631463846FFF7C3FEE1883846A7
:104A6000BDE8F041B1E610B50A884B88CC881A43FE
:104A70008B8823431A430B891A434B8989891A432C
:104A80000A43A0F8442010BD4FF6FF718180002139
:104A90000180C18041800172704700210180418006
:104AA0008180C180018141818181C1817047002164
:104AB0000180418001228280C180018170470021F4
:104AC000018041808180C180018141818181704765
:104AD0000029018802D041F0010101E021F001012B
:104AE00001807047002930F8441F02D041F4004192
:104AF00001E0C1F30E0101807047002A828901D0D4
:104B00000A4300E08A4382817047818270471143E3
:104B1000A0F848107047002A828901D00A4300E0BB
:104B20008A4382817047018921F007010181704722
:104B3000028922F070020A430281704700B50346E1
:104B4000FFF7F6FF188940F00700188100BD70B527
:104B500016460D46602904464FF0010231460AD040
:104B6000FFF79AFE29462046FFF7E2FF208940F032
:104B70000700208170BDFFF734FEF3E730B50489EC
:104B80004FF6FF7505EA03231343E4B20B432343B7
:104B9000038130BD10B50446FFF7F0FF208940F0D7
:104BA0007700208110BD10B50446FFF7E7FF20898C
:104BB00040F48040208110BD0185828270470288C8
:104BC00022F070020A430280704770B50589048B99
:104BD000068C25F007050D434FF6FC410C4040F2D2
:104BE00001110C434FF6FF7101EA031126F0220672
:104BF0001143314305810483018470BD028B22F08F
:104C000070020A4302837047028B4FF6FF7322F44F
:104C1000E04203EA0121114301837047828B22F0B5
:104C200070020A4382837047828B4FF6FF7322F42F
:104C3000E04203EA01211143818370470029018882
:104C400002D041F0800101E021F080010180704735
:104C50000029818802D041F0040101E021F0040123
:104C6000818070470029818802D041F0080101E06D
:104C700021F00801818070470029818802D041F02D
:104C8000010101E021F0010181807047028B22F0D7
:104C900008020A4302837047002C0140003401409F
:104CA0000004004000080040000C0040028B4FF65A
:104CB000FF7322F4006203EA012111430183EAE752
:104CC000828B22F008020A438283E4E7828B4FF64C
:104CD000FF7322F4006203EA012111438183DAE7C2
:104CE000028B22F004020A430283D4E7028B4FF6C0
:104CF000FF7322F4806203EA012111430183CAE7B2
:104D0000828B22F004020A438283C4E7828B4FF62F
:104D1000FF7322F4806203EA012111438183BAE721
:104D2000028B22F080020A430283B4E7028B4FF623
:104D3000FF73C2F30E0203EA012111430183AAE7C4
:104D4000828B22F080020A438283A4E7828B4FF693
:104D5000FF73C2F30E0203EA0121114381839AE734
:104D6000028C22F002020A43028494E7028C22F0B1
:104D700008020A4302848EE7028C4FF6FF7322F08A
:104D8000200203EA01111143018484E7028C4FF6EB
:104D9000FF7322F0800203EA0111114301847AE7D4
:104DA000028C4FF6FF7322F4007203EA01211143D3
:104DB000018470E7028C4FF6FF7322F4006203EA6D
:104DC00001211143018466E7028C4FF6FF7322F440
:104DD000005203EA0131114301845CE710B501235D
:104DE000048C8B409C430484038C8A4013430384CB
:104DF00010BD10B50423048C8B409C430484038CA9
:104E00008A401343038410BD30B50124058C00F1A2
:104E100018038C40A543058489B108290FD0091FC8
:104E2000C1F34E001844016821F4E04101600168BB
:104E30004FF6FF7303EA02221143016030BD03EB1A
:104E40005100016821F0700101600168F4E7002958
:104E5000018802D041F0020101E021F0020101804D
:104E600019E70029018802D041F0040101E021F096
:104E7000040101800FE70029818802D041F0800100
:104E800001E021F08001818005E7028822F008021C
:104E9000028002880A430280FDE6828822F07002C6
:104EA000828082880A438280F5E6028922F0070226
:104EB000028102890A430281EDE6028922F0800222
:104EC000028102890A430281E5E68184E3E6818565
:104ED000E1E68186DFE60187DDE68187DBE6A0F893
:104EE0004010D8E6028822F44072028002880A4309
:104EF0000280D0E6808ECEE6008FCCE6808FCAE6B8
:104F0000B0F84000C7E6808CC5E6008DC3E60246D7
:104F10000020128A0A4200D00120BCE6C943018267
:104F2000B9E602460020138A92890B4202EA010286
:104F300002D0002A00D00120ADE6C9430182AAE6D2
:104F4000C54910B5884202D1012144150AE0C34980
:104F5000884202D10121041504E0C14988420AD1E6
:104F60000121CC032046FFF74AF82046BDE8104057
:104F70000021FFF744B810BD10B54268B94B0C7959
:104F80001A400B6842EA0422134343608268B64B1E
:104F90001A40D1E9024323434C7942EA44021343C5
:104FA0008360C26A097C22F47002491EC9B242EAD7
:104FB0000151C16210BD0021016001714171816028
:104FC000C1600121017470470029816802D041F05D
:104FD000010101E021F00101816070470029816831
:104FE00002D041F4807101E021F48071816070474A
:104FF000002A4268C9B201D00A4300E08A434260F5
:105000007047816841F008018160704701460020C7
:105010008968090700D501207047816841F00401C3
:1050200081607047014600208968490700D501204A
:1050300070470029816802D041F4A00101E021F409
:10504000A00181607047014600208968490200D5AF
:10505000012070474268491E22F4604242EA413111
:10506000416070470029416802D041F4006101E0CD
:1050700021F400614160704770B5072609290AD9FB
:10508000C568A1F10A0404EB4404A640B543A3405B
:105090001D43C56007E0056901EB4104A640B54327
:1050A000A3401D4305611F23072A09D2446B521EEA
:1050B00002EB820293409C4391400C43446370BDD9
:1050C0000D2A09D2046BD21F02EB820293409C434B
:1050D00091400C43046370BDC46A0D3A02EB820236
:1050E00093409C4391400C43C46270BD0029816889
:1050F00002D041F4801101E021F4801181607047F9
:10510000C06C80B2704754484C300068704700292A
:10511000416802D041F4806101E021F48061416086
:1051200070470029416802D041F4805101E021F428
:10513000805141607047826822F4E0420A438260F5
:1051400070470029816802D041F4004101E021F458
:105150000041816070470029816802D041F402114A
:1051600001E021F402118160704701460020896846
:10517000890200D50120704770B5072609290AD990
:10518000C568A1F10A0404EB4404A640B543A3405A
:105190001D43C56007E0056901EB4104A640B54326
:1051A000A3401D430561836BC3F30154121B921C82
:1051B00002EB82021F249440A34391400B4383637C
:1051C00070BD826B491E22F4401242EA0151816394
:1051D000704708B508440090026008BD08B508444F
:1051E00028300090006880B208BD42681F4B1A400A
:1051F0000A4342607047416282627047426822F00F
:105200001F020A43426070471349083100280868AA
:1052100002D040F4000001E020F400000860704774
:105220000246002012680A4200D001207047C9439C
:105230000160704710B50246002054680B0AC9B2DD
:105240000C401168194202D0002C00D0012010BD82
:105250006FEA1121016070470024014000280140DD
:10526000003C0140FFFEF0FFFDF7F1FFFFFD3FFFB7
:1052700001684FF6FE72114001600021016041603B
:105280008160C1606A496A4A0839904203D148681E
:1052900040F00F0006E0664A1432904204D148689C
:1052A00040F0F00048607047614A2832904203D1D4
:1052B000486840F47060F5E75D4A3C32904203D1A3
:1052C000486840F47040EDE7594A5032904203D1AB
:1052D000486840F47020E5E7554A6432904203D1B3
:1052E000486840F47000DDE7514A7832904203D1BB
:1052F000486840F07060D5E74E4A111F904203D1D4
:10530000086840F00F0006E04A4A1432904204D187
:10531000086840F0F00008607047464A2832904222
:1053200003D1086840F47060F5E7424A3C3290428D
:1053300003D1086840F47040EDE73E4A5032904295
:10534000EAD1086840F47020E5E730B5026847F616
:10535000F0739A430C6A8B682343D1E904452C43CC
:1053600023438C692343CC6923434C6A23438C6ACF
:10537000234313430360CA6842600A688260496835
:10538000C16030BD0021016041608160C160016188
:1053900041618161C161016241628162704700299E
:1053A000016802D041F0010102E04FF6FE721140A7
:1053B00001607047002A026801D00A4300E08A4376
:1053C0000260704741607047406880B27047024693
:1053D0000020D10002D51749083901E014490839E5
:1053E0000968114200D001207047C10003D511495E
:1053F000091F086070470E49083948607047024627
:105400000020D10002D50B49083901E008490839CC
:105410000968114200D001207047C10003D5054939
:10542000091F08607047024908394860704700004A
:1054300008000240080402402F480021017041602A
:1054400070472DE9F0412C4C2078002833D02146BC
:1054500060784978277A4E1CCB1C4A1D00250831FC
:105460007FB1042801D2F0B208E0082801D2D8B2F6
:1054700004E0102801D2D0B200E0C8B208280FD250
:1054800010E0FB2801D9F0B208E0F72801D9D8B222
:1054900004E0EF2801D9D0B200E0C8B20A2801D256
:1054A0002570002060702078002804D160680028F2
:1054B00001D080476560BDE8F081104A927852B112
:1054C0000D4B01221A7009B1002200E0C0225A706F
:1054D0005860197270470028FCD0004706480078D1
:1054E00070470548007A08B10020704701207047D6
:1054F000014840787047000094130020A01300205A
:1055000038B501211C20FEF768FD2020ADF8000011
:10551000614D48248DF8034069462846FEF775FB27
:105520001021ADF800108DF8034069462846FEF7BB
:105530006CFBA814ADF800008DF80340694657488D
:10554000FEF763FB38BD10B5FFF7DAFF5548544945
:10555000C1605549C1615549C16210BD10B500F027
:1055600050FB53494A68821A0A2A04D34860BDE8AE
:10557000104000F040B810BD70474A4A02EB0012DC
:10558000906891607047474B9A6299619860704744
:1055900070B54848007888B140F2712148434FF611
:1055A000FF7101EAC00503243E4E09E000F029FB2B
:1055B00006EB04110968401AA84201D2012070BD0F
:1055C0002046641EE4B2F1D270BD2DE9F0410324FF
:1055D0000126344F4FF0040808E007EB0415AE71C4
:1055E0002E7185F8058000F00CFB2860641EE4B283
:1055F000F3D2BDE8F0812DE9F0414FF48051274806
:10560000FEF759FB2A4F244C102138702046FEF734
:1056100052FB787020212046FEF74DFB0325B87021
:1056200001262AE01F4800EB0514785D78B10021BF
:1056300060794006000E6071C1B140F001006071F8
:1056400000F01FF8042818D3207910B105E00121DB
:10565000EEE700F0D6FA20602671A07968B9A6714D
:1056600001221146E06800F0E9FD06E000F009F8CB
:10567000042802D800202071A0716D1EEDB2D1D295
:10568000B7E7002104E000F001021144C9B240086C
:105690000028F8D108467047000C0140000801407E
:1056A0001CB30008AC1300202CB300083CB3000866
:1056B000F0000020A01300207749C86070477648AA
:1056C000C068002800D000477047734A01469068C0
:1056D000916070472DE9F05FDFF8BCB101220BF15A
:1056E000100B58469BF800409BF803609BF8023073
:1056F000407800212BB19BF804305D468BB1B61F7A
:1057000010E008B1E41C00E0E41EE4B2042C13D362
:1057100018B104248BF802200EE000248BF8051049
:105720000AE00A3616F0FF0606D04BB1002600B19B
:10573000697100208BF80400E5080020574F08E04D
:105740000126A9703046F5E739543B1A401C197000
:10575000C0B2A842F8D314F0070125D068424FF038
:10576000FF0C0CFA01F303F0FF0A2CFA01F38A4054
:105770004FF0800C2CFA01FC80B202F0FF090021EE
:105780007A5D02EA0A0242EA09027A553A5C6D1C25
:105790001A4042EA0C023A54401E491CADB280B293
:1057A00011F0FF01ECD01AE0CCB1C6F10100C4F158
:1057B0000801C0F34600C1F3C40108443844012283
:1057C000314602F058FD042C09D0012004E02918CC
:1057D0007A5C42F001027A54401EC0B2F7D28BF8D4
:1057E00000408BF80360BDE8F09F7CB500F009FA3B
:1057F000294D69686A78411A914231D3A970002411
:105800006860FFF71EFEA86805F1100628B17179DF
:1058100009B9717839B980470446707918B1FFF732
:1058200059FF707910B9FFF759FE00B101241C48E7
:105830004FF47A76407960B1A8781AA1B6FBF0F2FD
:10584000684603F065FA382364220021684600F0B8
:10585000BDF800F01AF924B12878B6FBF0F06870B2
:105860007CBD2820FBE70E4900238A780A491031C5
:105870004AB10122012808D04A708B700B700A715E
:10588000CA704A7170474B7170474B708A70042020
:1058900008700B71CB70F4E7F80000204400002082
:1058A000A0130020257500002DE9FF4F85B00D469F
:1058B000129CFFF71DFE2844149900F0FF0AAAEB82
:1058C0000100C0B20390E0080490039800F0070BB9
:1058D0000AEB0400C0B20090002070E0039800EBD7
:1058E000C900C4B204F10800C7B2149830B15745DA
:1058F00062D3082F60D8009884425DD814984FF086
:10590000FF0870B1544505D2AAEB0401FF2088407E
:10591000C0B205E00098874203D9391AFF20C84079
:105920008046DDE9070209FB0200E6080290BBF1B0
:10593000000F19D1082C17D20024584D10E00598FB
:10594000204410F0FF0F09D102981399204400F071
:105950009EF8A95D00EA08000143A955641CE4B261
:1059600008988442EBD327E0F8080025019020E056
:105970000598284410F0FF0F19D102981399284474
:1059800000F085F800EA0800082C05D2434A00FA26
:105990000BF3915D19439155082F08D23F4A0199A5
:1059A000CBF10803D840515C0143019811546D1CA0
:1059B000EDB208988542DBD309F10100C0B2049929
:1059C000814688428AD309B0BDE8F08F2DE9FE43B5
:1059D0001F4691468846064600252FE02039C8B26A
:1059E0005F2900D90020C5EBC50202EB090108239D
:1059F00000930022CCB2CDE90182294900EB80005E
:105A00004218052339462046FFF74EFFB8F1000F34
:105A100011D084B1601E2149C0B200EBD7004FF015
:105A2000FF320A5414F1040F05DA0846641DE1B28E
:105A300001EBD70142546D1CEDB2761C3178002980
:105A4000CCD1BDE8FE832DE9F0411D4616468846BF
:105A5000044602F040FCC0B2401C04F097FC07462C
:105A6000214602F04CFC2B46324641463846FFF7B1
:105A7000ADFF3846BDE8F04104F060BC00EBD1005A
:105A800006490844114602F0FDBBFAF74EBF007804
:105A9000002901D0C043C0B270470000440000207C
:105AA0002AB100087FB54FF4E060FEF779FC1C20B6
:105AB0008DF80C0001208DF80F0000248DF80D40AA
:105AC0008DF80E4003A8FEF770FC01210846FEF792
:105AD0008DFA4FF080452846FEF7BAFCADF8064037
