:020000040800F2
:2000000020750020A9010008772E000871290008752E0008AB03000845400008000000003C
:20002000000000000000000000000000FD3800089B04000800000000F12F0008FF38000875
:20004000C3010008C3010008C3010008C3010008C3010008C3010008C3010008C301000840
:20006000C3010008C3010008C3010008C3010008C301000861040008C3010008C30100087F
:20008000C3010008C3010008C3010008C3010008C3010008C3010008C3010008C301000800
:2000A000C3010008C3010008C3010008C3010008C30100080000000000000000C301000878
:2000C000C3010008C3010008C301000885330008C3010008C301000839400008C301000817
:2000E000C3010008C301000800000000000000000000000000000000000000000000000068
:2001000000000000C301000800000000C3010008000000000000000081390008C3010008B9
:20012000C3010008C3010008C3010008C3010008C3010008000000000000000000000000C3
:20014000C3010008C3010008C301000800000000C3010008C3010008C3010008C30100080B
:20016000C3010008C3010008C301000800000000C3010008C3010008000000000000000083
:20018000C3010008C3010008C3010008DFF814D000F0F8F800F08AF8004800474D8E01087B
:2001A00000F0CFF8207500200648804706480047FEE7FEE7FEE7FEE7FEE7FEE7FEE7FEE701
:2001C000FEE7FEE7713900088D0100082DE9F04117460E46054633B107FB0354E41B204628
:2001E000B047A542FAD1A5F10800BDE8F0812DE9F05F0546002092469B4688460646814638
:2002000040241BE0284641464746224600F084F853465A46C01A914110D311461846224644
:2002200000F06BF82D1A67EB01084F4622460120002100F062F817EB00094E41201EA4F1D3
:200240000104DFDC484631462A46434600F000B830BCBDE8C09F40EA01039B0703D009E0BC
:2002600008C9121F08C0042AFAD203E011F8013B00F8013B521EF9D27047D2B201E000F80F
:20028000012B491EFBD270470022F6E710B513460A4604461946FFF7F0FF204610BD421CBB
:2002A00010F8011B0029FBD1801A704770B5054C054D03E0206820448047241DAC42F9D17D
:2002C00070BD000008F602081CF602082DE9F041074615460E46102018F04AFE04000AD02C
:2002E0006760C4E9026500F027F80168216004600020BDE8F0810120FBE7202A04DB203A0A
:2003000000FA02F1002070479140C2F1200320FA03F3194390407047202A04DB203A21FAE1
:2003200002F00021704721FA02F3D040C2F120029140084319467047004870471401002098
:2003400070472DE9F0410646FFF7F6FF8046454613E016B1E068B0420ED120682860D4E977
:200360000101D8F800708847204618F047FDD8F80000B842EBD100E025462C68002CE8D170
:20038000BDE8F081064C074D06E0E06840F0010394E8070098471034AC42F6D3FFF7FAFEF4
:2003A000DCE80208FCE802087047FEE7254A10B4136823F001031360234A1368C3F30B1CE8
:2003C0000123ACF54064243C07D01268C2F30B12A2F5406CBCF1270C2AD11C4A12683ABB3E
:2003E0001B4AD2F800C0CCF30B0CBCF58A6F0FD0D2F800C0CCF30B0CACF58064833C07D034
:200400001268C2F30B02A2F5806CBCF1850C0FD1104A13601368002BFCD10F4A106010687E
:20042000884202D010BC0020704710BC012070470A4A93609368002BFCD1106010688842ED
:20044000F3D0EFE7002000E000ED00E0002004E00010005C084C0258004C02580030024000
:20046000014800F0E1B80000C803002030B590F8444004F01C050124AC40056C6C600468FF
:2004800063608368102B036803D099600068C26030BD9A600068C16030BD70470DF05CBC89
:2004A00072B6FEE7F0B5044600201E23012601E05B1E05D303F01F0706FA07F50D42F7D05B
:2004C00072B1082A0AD0102A05D0182A01D1072B06D30120F0BD082BFBD201E0102BF8D20B
:2004E0002368596121688B6823F0180313438B60F0BD000010B5040010D0607F20B900209E
:200500002077204600F030F802206077207938B1D4E902122046FFF7C5FF48B1012010BD73
:200520002168104848612068816821F0180181606079A0B1206921680861206881686269D4
:2005400021F060011143816020688168A26921F080011143816001206077002010BD4FF08D
:20056000FF30E8E7B71DC10408B500680649884208D10648816C41F480518164806C00F4C7
:200580008050009008BD0000003002400010024010B590F825100022022905D00421C16385
:2005A00080F82420012010BD01680B6823F00E030B6001680B6823F001030B6090F84410EC
:2005C000046C01F01C03012101FA03F3636080F8251080F82420104610BD10B590F82510B7
:2005E0000024022903D00421C16301241AE001680A6822F00E020A6001680A6822F001021A
:200600000A6090F84410036C01F01C02012101FA02F25A6080F82510002180F82410816BE5
:2006200001B18847204610BDF0B4016C0C6801680D6890F8442002F01C06042202FA06F388
:20064000234211D06B070FD50B689B0603D40B6823F004030B6090F8441001F01C018A4067
:20066000016C4A60016B1DE0022303FA06F727424FF0000C4FF0010218D0AF0716D50C68E8
:20068000A40605D40C6824F00A040C6080F8252090F8441001F01C018B40016C4B6080F8D3
:2006A00024C0C16A00291AD0F0BC08470823B340234214D02B0712D50B6823F00E030B609B
:2006C00090F84410036C01F01C0102FA01F15960C26380F8252080F824C0416BE2E7F0BCBB
:2006E0007047000070B568B12B4C036814212B4AA34209D22A4C1C44B4FBF1F18900C0E920
:2007000010210BE0012070BD234C64421C44B4FBF1F189004164204908390164022180F891
:2007200025101C6847F6F0718C43D0E902152943D0E904563543294385692943C56929436C
:20074000056A2943214319608168B1F5804F19D0036C0F21934202D152F8A83F02E00E4AE8
:20076000A032136890F8444004F01C04A1408B43136090F84430416803F01C0399401368DF
:20078000194311600021C163012280F8252080F82410084670BD00000804024000000240B0
:2007A000F8FFFDBF70B5044690F82400002501280CD0012084F8240094F825600020012E20
:2007C00006D084F824000225284670BD022070BD022684F82560E0632068066826F0010613
:2007E00006602046FFF742FE206B00282068016802D041F00E0106E021F00401016020685C
:20080000016841F00A0101602068016841F001010160D9E770B5044600F006F90546601C68
:2008200002D004480078044400F0FEF8401BA042FAD370BD180000202DE9F04FDFF8AC911C
:2008400000230325A9F1040B85B04FF0010C0F2709F1040AABF1040EBFE000BF0CFA03F6DA
:20086000324075D00C7904F00304012C01D0022C1BD1846800945C0005FA04F80494009C1E
:2008800024EA08040094D1F80C80049C08FA04F8009C48EA0408C0F808804468B4430E7973
:2008A000C6F300169E40264346600C79E443A4070AD0C4684FEA430805FA08F6B4438E68B1
:2008C00006FA08F62643C6600C7904F00304022C10D1DC0800EB84040294246A5E074FEAE3
:2008E000D66807FA08F6B4430E6906FA08F62643029C266204684FEA430805FA08F6B443DC
:200900000E7906F0030606FA08F6264306604C6814F4403F60D0364C266E46F0010626663A
:20092000246E23F0030604F001040094314C34440294A4689E074FEA167807FA08F6B44383
:20094000B0F1904F05D02C4EB04204D1012612E042E000260FE0294EB04201D102260AE064
:20096000274EB04201D1032605E0264EB04201D1042600E0072606FA08F62643029CA660B6
:20098000D9F800604C46D1F8048096435FEAC82800D516432660DAF800405646D1F8048086
:2009A00094435FEA882800D514433460DBF800405E46D1F8048094435FEA883800D5144397
:2009C0003460DEF800407646D1F8048094435FEAC83800D5144334605B1C0A6832FA03F478
:2009E0007FF43CAF05B000F00FB800000804014000100240000001400004004800080048B1
:200A0000000C00480010004830BCBDE8C08F426921EA02030A4043EA0241816170470AB181
:200A2000816170478162704701488068704700001800002090F84120202A24D190F8402053
:200A4000012A20D0012280F84020242280F841200268136823F0010313600268136823F4F6
:200A600080531360026813680B43136001680A6842F001020A60202180F84110002180F86D
:200A80004010084670470220704790F84120202A22D190F84020012A1ED0012280F8402006
:200AA000242280F841200268136823F0010313600268136823F4706343EA012111600168B0
:200AC0000A6842F001020A60202180F84110002180F84010084670470220704770B504000B
:200AE00004D094F84100002510B106E0012070BD84F84050204600F079F9242084F8410066
:200B00002068016821F0010101606068216820F0706008612068816821F400418160E068E6
:200B20000128A06807D040F4044021688860E068022803D006E040F40040F6E721684FF47C
:200B40000060486020684168114A114341602068C16821F40041C160D4E904010843A169CD
:200B600040EA01202168C860D4E907010843216808602068016841F00101016065642020EA
:200B800084F84100256384F84250002070BD0000008000022DE9F84F044690F84100DDF8EE
:200BA00028A01F4690468B4620287ED194F8400001287AD0012084F84000FFF735FF064638
:200BC000012200901923D103204601F089FFE0BB222084F84100102084F8420000256564FD
:200BE000C4F8248067856563618D3148FF274FF080784FF00079FF2903D927853A460090A5
:200C000039E0618D218500903AE05946204601F04FFF13E001F090FFB8B92068406A616A58
:200C20000870606A401C6062208D401E80B22085618D491E6185618D01B168B1608D324619
:200C4000002851462046E5D100E002E001F0C2FFD0B1012000F030B8534600228021204609
:200C6000009601F03DFF0028F3D1608DFF2804D927853A4600954346C7E7608D20850095B5
:200C800094F828204B46C0E721682020C86121684A68084B1A404A6084F8410084F84250F9
:200CA00084F840500020D5E7FFE70220D2E700000024008000E800FE18BCBDE8E08F000019
:200CC0002DE9F84F044690F84100DDF828A01F4690468B4620287ED194F8400001287AD025
:200CE000012084F84000FFF79FFE0646012200901923D103204601F0F3FEE0BB212084F8D5
:200D00004100102084F8420000256564C4F8248067856563618D3148FF274FF080784FF09F
:200D20000079FF2903D927853A46009039E0618D218500903AE05946204601F0B9FE13E083
:200D400001F06EFFB8B9606A216800788862606A401C6062608D401E6085208D401E80B2BA
:200D60002085618D01B168B1608D3246002851462046E5D100E002E001F02CFFD0B1012055
:200D800000F030B85346002280212046009601F0A7FE0028F3D1608DFF2804D927853A4684
:200DA00000954346C7E7608D2085009594F828204B46C0E721682020C86121684A68084BB4
:200DC0001A404A6084F8410084F8425084F840500020D5E7FFE70220D2E7000000200080FB
:200DE00000E800FE18BCBDE8E08F000030B59DB00446142117A8FFF747FA5C216846FFF75D
:200E000043FA17492068884227D14020002500900C95684600F08AF908B1FFF741FB114CCC
:200E2000E06C40F00200E064E06C17A900F002001C90C02017901220CDE9180503201A90ED
:200E400004201B900848FFF7F7FCA06D40F40010A065A06D00F400101C901DB030BD0000BD
:200E60000054004000100240000400480248816802781144816070471800002010B5002485
:200E8000032000F071F80F2000F008F808B1012401E000F025F8204610BD000070B50E4E37
:200EA00005460024307898B14FF47A71B1FBF0F00A490968B1FBF0F001F0FBF840B9102DAE
:200EC00006D200222946501E00F02EF8756000E00124204670BD000018000020240000203C
:200EE000094808B5016E41F001010166016E01F001010091816D41F080518165806D00F035
:200F00008050009008BD000000100240002809DB00F01F02012191404009800000F1E02090
:200F2000C0F8001170470000F0B40E4B1B680C46C3F30223C3F10705042D00D90425191D5B
:200F4000072901D2002300E0DB1E012606FA05F1491E214099409E40761E16403143F0BCEC
:200F600017F0D1BC0CED00E0064900F0070208684FF6FF03184040EA0220034A1043086059
:200F8000704700000CED00E00000FA051649B0F5007F0868C0F3412009D0022805D0086873
:200FA00020F4C06040F480600860002070470128FBD0086820F4C06040F4007008600B48B3
:200FC0003222006850430A4AB0FBF2F0401C00E0401E4A69520501D50028F9D1486940057F
:200FE000E3D5032070470000007000402400002040420F000248006800F4C060704700005D
:2010000000700040F8B50446FFF70EFD064624B194F84100002510B109E00120F8BD84F819
:201020004050204600F042F841F28830A06420680168A2686FF0FF0321F4706103EB02224D
:2010400011430160A06C0090334600222021204602F08CF810BBE269E16823791143226AAC
:2010600042EA03621143226813680E4E334019431160D4E905121143226853680A4E3340B2
:20108000268A43EA06431943516021680A6842F001020A606564012184F8411084F84050BF
:2010A000F8BD00002FFFFF00FEF8E0FFF0B587B0044614216846FFF7E7F8194920688842E7
:2010C0002CD11848016D41F480710165016D01F480710591C16C41F00101C164C16C01F02C
:2010E00001010591C16C41F00201C164C06C022400F002000590C020002503260A278DE825
:20110000F10069464FF09040FFF796FB40F603408DE8F10069460448FFF78EFB07B0F0BDDC
:20112000001000A000100240000400482DE9F84F044600270088A84D3E46000515D5606CD7
:2011400060B1B0F5000F04D0B0F5400F2BD001270AE0E86840F48030E86024E00021201D17
:2011600002F03CF807001ED03E46206880033AD5A86D4FF00008C00009D4A86D40F08050A8
:20118000A865A86D4FF0010800F080500090DFF84CA2DAF8001041F48071CAF80010FFF700
:2011A00043FC814610E0D5F88800616C20F440000843C5F88800D8E7FFF736FCA0EB0900B8
:2011C000022801D9032705E0DAF80000C005F3D5002F7DD04FEA0706B8F1000F03D0A86D3B
:2011E00020F08050A8652078C00707D0D5F88800216A20F003000843C5F88800207880072A
:2012000007D5D5F88800616A20F00C000843C5F888002078400707D5D5F88800A16A20F0FB
:2012200030000843C5F888002078800607D5D5F88800E16A20F440600843C5F88800208868
:20124000800507D5D5F88800E16B20F440200843C5F888002088400507D5D5F88800216CDD
:2012600020F440100843C5F888002078400607D5D5F88800216B20F440500843C5F88800AB
:201280002078000607D5D5F88800616B20F440400843C5F888002088C00507D5D5F88800F1
:2012A000A16B20F440300843C5F8880020684FF0006700034FF0806850D5D5F88800A16C2F
:2012C00020F040600843C5F88800A06CB84200E005E03BD1E86840F48010E8603EE0D5F8B0
:2012E000900010F4407014D0A16D814211D0D5F89000D5F8901020F4407041F48031C5F8E3
:201300009010D5F8901021F48031C5F89010C5F89000C00711D0FFF787FB074641F28839EF
:2013200007E000BFFFF780FBC11B494501D9032652E7D5F890008007F4D5D5F89000A16DD8
:2013400020F440700843C5F8900045E7404505D10121201D01F042FF00B106462068400351
:2013600017D5D5F88800E16C20F040600843C5F88800E06CB84204D1E86840F48010E86028
:2013800007E0404505D10121201D01F027FF00B106462088400411D5D5F88800216D20F0D3
:2013A00040500843C5F88800206DB0F1805F05D10221201D01F012FF00B10646208800041F
:2013C00006D555F8880F616D20F0804008432860304600F005B800000010024000700040B8
:2013E00018BCBDE8E08F00002DE9F0470F46050058D0404E306800F00700B84209D23068AC
:2014000020F0070038433060306800F00700B84248D12878384CC0072CD06868032811D045
:20142000022812D0216898B1490500293ADAA16821F003010143A160FFF7F6FA804641F201
:20144000883910E021688901EFE721688903ECE78907EAE7FFF7E8FAA0EB0801494502D9D4
:201460000320BDE8F087A068696800F00C00B0EB810FEFD12878800705D5A068A96820F043
:20148000F0000843A060306800F00700B8420BD9306820F0070038433060306800F007005B
:2014A000B84201D00120DCE72878400705D5A068E96820F4E0600843A0602878000706D542
:2014C000A068296920F4605040EAC100A06000F03FF8A168094AC1F30311515C01F01F01BA
:2014E000C8400749086007480068BDE8F047FFF7D5BC00000020024000100240109C0108A9
:20150000240000201C0000200548064900688968054AC1F30221515C01F01F01C8407047B3
:201520002400002000100240509C01080548064900688968054AC1F3C221515C01F01F0187
:20154000C84070472400002000100240509C010870B52549002318468A68CC6812F00C02F7
:2015600004F00306214C4FEA640509D00C2A05D0042A32D0082A00D1284670BD012E10D19D
:201580000B681B0704D4D1F89430C3F3032302E00B68C3F30313164E56F82330DAB10C2A8E
:2015A000EBD1C86800F00300022818D0032818D01846CA68CB68C2F30212C3F30623434336
:2015C000521CB3FBF2F2C868C0F34160401C4000B2FBF0F070BD184670BD204670BD2046AD
:2015E000E7E72846E5E70000001002400024F400209C01082DE9F84304006FD0FE4DA868C5
:2016000000F00C06E86800F003072078C00664D576B10C2E01D1012F0AD0A06900282868E9
:201620007AD040F001002860FFF7FEF980465DE02868800702D5A0690028DED0216A2868CF
:20164000000703D5286800F0F00004E0D5F89400F02202EA1010814216D9084601F054FE95
:2016600000283BD1286840F0080028602868216A20F0F000084328606868E16920F47F400B
:2016800040EA0120686016E0286840F0080028602868216A20F0F000084328606868E169E9
:2016A00020F47F4040EA0120686026B9206A01F02BFE0028D5D1FFF74BFFA968CF4AC1F3D5
:2016C0000311515C01F01F01C840CD490860CD480068FFF7E3FB00287ED12EE0CAE000BF73
:2016E000FFF7A2F9A0EB0800022876D828688007F6D5286840F0080028602868216A20F0F1
:20170000F000084328606868E16920F47F4040EA0120686011E0FFE720F001002860FFF7A0
:2017200083F9804606E000BFFFF77EF9A0EB08000228DAD828688007F6D42078C00740D096
:20174000082E18D00C2E01D1032F14D06068B0F5803F17D0B0F5A02F286817D020F4803087
:201760002860286820F4802028606068E0B1FFF75BF9804614E02868800322D560680028BE
:2017800078D01EE0286840F48030EDE740F480202860F7E7FFF748F9A0EB08006428A4D8AF
:2017A00028688003F6D50CE0FFF73EF9804605E0FFF73AF9A0EB0800642896D828688003BE
:2017C000F6D4207880073BD5042E11D00C2E01D1022F0DD0E06801E0B6E1FFE0002828688C
:2017E0001ED040F480702860FFF71EF907460CE0286840050CD5E0680028C1D008E000BFAB
:20180000FFF712F9C01B022893D828684005F7D56868217C20F0F85040EA016068600FE0AF
:2018200020F480702860FFF7FFF8074605E000BFFFF7FAF8C01B0228B1D828684005F7D428
:201840002078000729D560690028D5F8940012D040F00100C5F89400FFF7E6F8074604E030
:20186000FFF7E2F8C01B022899D8D5F894008007F6D512E02BE120F00100C5F89400FFF719
:20188000D3F8074605E000BFFFF7CEF8C01B022885D8D5F894008007F6D42078400766D5A2
:2018A000A86D0027C00008D4A86D40F08050A865A86D012700F08050009053480168C905CF
:2018C00012D40168814641F480710160FFF7ACF8804605E0FFF7A8F8A0EB080002287DD87E
:2018E000D9F80000C005F5D5A068012816D00528D5F8900017D020F00100C5F89000D5F8D5
:20190000900020F0040000BFC5F89000A06841F28839C0B1FFF788F880460FE0D5F8900022
:2019200040F00100F0E740F00400C5F89000F5E7FFF77AF8A0EB080149454FD8D5F8900034
:201940008007F5D50EE0FFF76FF8804606E000BFFFF76AF8A0EB080149453FD8D5F8900092
:201960008007F5D41FB1A86D20F08050A8652078800628D5606A0028D5F8980012D040F0C1
:201980000100C5F89800FFF74FF8074605E000BFFFF74AF8C01B022820D8D5F898008007A2
:2019A000F6D510E020F00100C5F89800FFF73CF8074604E0FFF738F8C01B02280ED8D5F8CD
:2019C00098008007F6D4A06AA8B1022824D00C2E7DD0286820F08070286000E0B3E02868FB
:2019E000000103D4E86820F00300E860E86807490840E8600CE09FE000100240109C0108C2
:201A0000240000201C00002000700040FFFFEEFEFFF70AF8044699E0E868E26A00F0030161
:201A2000914226D1216B00F070020901103991421FD1626B00F4FE41B1EB022F19D194F895
:201A4000382000F07841B1EBC26F12D1A18F00F4C00249084905A1F50011914209D194F870
:201A6000401000F0C06049084906A1F1007181424BD00C2E6FD0286840016CD4286820F05B
:201A800080702860FEF7D0FF064604E0FEF7CCFF801B022857D828688001F7D4F4E90B0161
:201AA0006FF00F0202EB01110843218A5204490802EB4151A26841EA02210843217D4FF01B
:201AC0007E42490802EB41610843217B00E042E040EAC160E968214A11400843E860286802
:201AE00040F080702860E86840F08070E860FEF79BFF044605E000BFFEF796FF001B02283A
:201B000021D828688001F7D523E02868800120D4286840F080702860E86840F08070E860F7
:201B2000FEF782FF044604E0FEF77EFF001B022809D828688001F7D50BE000BFFEF774FF7A
:201B4000001B022802D90320BDE8F88328688001F4D40020F8E70120F6E700008C809D01A2
:201B60007047000038B5016804464A688868C043430606D5C30704D1D3435B0601D4E16C0D
:201B800005E0830708D4D3431B0605D4216D01B02046BDE830400847830603D5430601D561
:201BA000C30551D4D3439B064ED443060AD494F85D30032B49D0236E43F004032366CB6851
:201BC0008B680093830609D4236E43F0010323668B6800930B6823F040030B60C00506D46F
:201BE000206E40F008002066206880680090206E002829D02068416821F0E0014160012005
:201C000084F85D00900701D4D00722D02068416821F003014160114DA06D40B18563A06D7E
:201C2000FEF7DBFC18B1206E40F040002066606D002809D08563606DFEF7CFFC002803D04D
:201C4000206E40F04000206638BDC8688868009038BD2046FFF784FF38BD000091330008C6
:201C600070B5040009D0606A002540B125616561A56294F85D0040B10CE0012070BD606853
:201C8000B0F5827FF4D0E561F2E784F85C50204600F056F8022084F85D002068016821F0F2
:201CA00040010160E1684FF4E062914201D9002001E04FF48050B1F5706F02D0914200D0F9
:201CC000A562A188228901F4827102F404421143227C02F002021143227D02F001021143E1
:201CE000228B02F400721143227F02F03802114394F8202002F080021143228D02F40052CF
:201D0000114322681160A169042202EA114194F8242000F4805002F01002114394F834203A
:201D200002F008021143A28902F4706211430143206841602566012084F85D00002070BDCD
:201D400030B587B0054614216846FEF79DFA2149286888423CD12049086E40F4805008668B
:201D6000086E00F480500590C86C40F00200C864C86C694600F0020005902820009002209E
:201D80000190029003200390052004901348FEF753FD144C124800212060012060601020A5
:201DA000C4E902018020C4E90401A161E16120462162FEF797FC08B1FEF772FB6C6500225E
:201DC00011462320A562FFF7AFF82320FFF79EF807B030BD00300140001002400004004843
:201DE00030000240C80300202DE9F84F044690F85C0000271D461646894601280DD04FF001
:201E0000010B84F85CB0FEF70FFE804694F85D00BA46012804D00227A4E0022000F0A8B861
:201E2000B9F1000F74D0002E72D0032084F85D00C4F860A0C4F83890A687E687C4F840A0C3
:201E4000A4F844A0A4F846A0C4F850A0C4F84CA0A068B0F5004F09D12068016821F0400113
:201E600001602068016841F48041016020680168490603D4016841F040010160E068B0F579
:201E8000E06F606823D908B1012E1CD1A06B21680088C86006E020688168890709D5A16B45
:201EA0000988C160A06B801CA063E08F401EE08709E0FEF7B9FDA0EB0800A84202D3681C28
:201EC00001D046E0ADB3E08F0028E4D136E008B1012E30D1E08F0128A06B03D921680088D0
:201EE000C8600FE021680078087314E0E08722E020688168890714D5E18F0129A16B08D981
:201F00000988C160A06B801CA063E08F801EEDE727E009780173A06B401CA063E08F401E51
:201F2000E4E7FEF781FDA0EB0800A84202D3681C01D00EE06DB1E08F0028D9D14246294678
:201F4000204601F076FA08B120202066A06810B105E0032706E02068C16880680090206EC6
:201F600000B1012784F85DB084F85CA0384655E718BCBDE8E08F00002DE9F041044690F8CC
:201F80005C000026012809D0012784F85C7094F85D000025012804D0022670E00220BDE803
:201FA000F08199B192B1032084F85D002566A163A287E28725642565E564A4F84450A4F8DE
:201FC0004650A068B0F5004F02D00BE0012656E02068016821F0400101602068016841F48B
:201FE00080410160616D28480863616D2748C862616D27484863606D85632068416821F4CC
:2020000080414160E068B0F5E06F10D8606D8069B0F5806F0BD1E08FC0072068416816D0C7
:2020200041F480414160E08F07EB5000E087E38F2268A16B0C32606DFEF7B4FB68B1206E93
:2020400040F010002066012684F85D7017E021F480414160E08F4008E8E720680168490616
:2020600003D4016841F0400101602068416841F0200141602068416841F00201416084F8A7
:202080005C5030468BE70000C5330008CF330008A333000800680449884204D10349002004
:2020A0000870FEF7FBB970470030014000000020704710B5401EB0F1807F01D3012010BD7B
:2020C0004FF0E02460610F21601716F01CFC0020A06107202061002010BD7047704770475C
:2020E000F0B590F83C20012A29D0012480F83C40022280F83D2003685A689D68114EB3429B
:2021000003D122F470074A683A4322F070070A683A435A600268B24205D0B2F1804F02D086
:20212000094B9A4204D1896825F080031943916080F83D40002180F83C100846F0BD0220CD
:20214000F0BD0000002C01400040014010B5040003D094F83D0010B107E0012010BD0020C9
:2021600084F83C00204600F023F8022084F83D00211D206801F00AFC012084F8480084F83D
:202180003E0084F83F0084F8400084F8410084F8420084F8430084F8440084F8450084F853
:2021A000460084F8470084F83D00002010BD000008B500680B49884212D10B48816D41F0D8
:2021C00010018165806D002200F01000009011463620FEF7A9FEBDE808403620FEF796BE94
:2021E00008BD0000001000400010024090F83D10012901D001207047022180F83D1001687F
:20220000CA6842F00102CA6000680B49884205D0B0F1804F02D00949884207D18168084A61
:202220001140062906D0B1F5803F03D0016841F00101016000207047002C0140004001404E
:2022400007000100704770B50446006801694FF00005C943890715D4C168C943890711D40B
:20226000E91E016101202077206880698007204602D0FFF7E7FF04E000F0A7F8204600F068
:20228000A5F8257720680169C943490717D4C168C943490713D46FF00401016102202077E1
:2022A0002068806910F4407F204602D0FFF7CAFF04E000F08AF8204600F088F825772068A3
:2022C0000169C943090716D4C168C943090712D46FF008010161042020772068C0698007A6
:2022E000204602D0FFF7AEFF04E000F06EF8204600F06CF8257720680169C943C90617D4BB
:20230000C168C943C90613D46FF010010161082020772068C06910F4407F204602D0FFF79F
:2023200091FF04E000F051F8204600F04FF8257720680169C943C90708D1C168C943C9070B
:2023400004D1891E0161204600F042F820680169C943090609D4C168C943090605D46FF0A9
:20236000800101612046FFF7B9FE20680169C943C90509D4C168C943090605D46FF480714D
:2023800001612046FFF7A9FE20680169C943490609D4C168C943490605D46FF0400101614F
:2023A000204600F037F820680169C94389060BD4C168C943890607D46FF020010161204645
:2023C000BDE87040FFF78BBE70BD70477047000010B500680C49884215D116F03DFE0B4C04
:2023E0002068401CC82190FBF1F2206001FB120008B916F00FFE206841F28831884202DB25
:2024000003490120086010BD00100040140000201000002070477047704770472DE9F04143
:2024200002680446D0691168936840F60F0528424FF0000505D186067ED58E067CD5616EDA
:202440001BE1994F03F001060F40374374D0C70709D0CF0507D501271762D4F8802042F0FB
:202460000102C4F8802082070AD5DA0708D0276802223A62D4F8802042F00402C4F880208D
:2024800042070AD5DA0708D0236804221A62D4F8802042F00202C4F8802002070CD501F055
:2024A0002002324308D0236808221A62D4F8802042F00802C4F8802002050BD54A0109D568
:2024C00023684FF400621A62D4F8802042F02002C4F88020D4F88020002A35D0800605D539
:2024E000880603D5616E09B120468847D4F8800021688968490602D410F0280F26D020463A
:2025000001F016FB2068806840061AD52068083050E8001F21F0400140E80012002AF5D181
:20252000206F70B161498163206FFEF756F800280AD0206F816B01E00EE02046BDE8F04103
:2025400008472046FFF769FFBDE8F0812046FFF764FFC4F88050F7E7276E2026012F7BD1D2
:20256000C70679D5CF0677D51020106220688068400641D5216F086840680004000CE3D046
:20258000B4F858208242DFD9A4F85A000868006880062AD4206850E8001F21F4807140E83C
:2025A0000012002AF6D12068083050E8001F21F0010140E80012002AF5D12068083050E8CC
:2025C000001F21F0400140E80012002AF5D1E6672566216851E8000F20F0100041E800026C
:2025E000002AF6D1206FFDF7D3FFB4F85800B4F85A10401A81B22AE0B4F85800B4F85A10CA
:20260000401A81B2B4F85A0000289DD000299BD0226852E8000F20F4907042E80003002BBF
:20262000F6D12068083050E8002F22F0010240E80023002BF5D1E66725666566226852E8F4
:20264000000F20F0100042E80003002BF6D12046FFF7E1FE78E7FFE7C70209D55B0207D5CC
:202660004FF4801010622046BDE8F041FFF7D4BE020606D50A0604D5A16E00297FF45DAFCE
:2026800062E74006E6D54806E4D52046026852E8001F21F0400142E80013002BF6D1866752
:2026A000856600F064F94FE7200100041D3B000810B5040002D0A06F10B107E0012010BDE7
:2026C000002084F87400204600F026F82420A0672068016821F001010160204601F0ECFA89
:2026E0000128ECD0606A10B1204601F085F92068416821F4904141602068816821F02A0130
:2027000081602068016841F0010101602046BDE8104001F0D5B900002DE9F0439DB0044699
:20272000142117A8FDF7B0FD5C216846FDF7ACFD30492068304C0327002502264FF00708FA
:202740004FF09049884226D10120009008956846FEF7ECFC08B1FDF7A3FE206E40F48040F7
:202760002066206E00F480401C90E06C40F00100E064E06C19AA00F001001C904FF4C06015
:20278000CDE9170682E8A00117A94846FEF754F81DB0BDE8F08319498842F9D168460096AD
:2027A0000995FEF7C3FC08B1FDF77AFEA06D40F40030A065A06D00F400301C90E06C40F0D3
:2027C0000100E064E06C19AA00F001001C900C20CDE9170682E8A00117A94846FEF72CF897
:2027E000002211462620FEF79FFB2620FEF78EFBCEE70000003801400010024000440040C3
:2028000030B4C36F202B20D1E1B1DAB190F87430012B1AD0012380F87430002303660C4CE3
:202820000368A3420BD05B681B0208D5046854E8003F43F0806344E80035002DF6D130BC72
:2028400001F03ABB012030BC70470220FBE70000008000402DE9F041006813490024884211
:202860001FD11248124A00254178037853541278A52A04D1491CC9B24170172900D9457025
:202880000C4E2027012209490A48FFF7B9FF002807D0641C0A2CF5DBF76786F874500024D9
:2028A000F0E7BDE8F0810000004400400E00002024010020440300202DE9F8430446806F43
:2028C0001F4616460D4620284FD1CDB1C6B194F87400012849D0012084F874004FF00008ED
:2028E000C4F880802120A067FEF79EF8A4F850608146A4F85260A068B0F5805F03D004E0A5
:202900000120BDE8F883206928B12E465FF0000584F8748010E00026FAE78021204601F0ED
:2029200027FBB8B9C6B116F8010B21680885B4F85200401EA4F85200B4F852004B464FF045
:20294000000200970028E8D14FF04001204601F00FFB30B10320D4E735F8020BC0F3080068
:20296000E3E72020A0670020CBE70220C9E77047FEE701688A69D243920701D400228A6219
:2029800000688169C943C90703D0816941F00101816170472DE9F047044600688846174656
:2029A000816900252E46C906A9464FF0200A47D51021C16137E000BFB8F1FF3F33D0FEF749
:2029C00033F8C11B414502D8B8F1000F2BD12068416894F8422001F480418369DB431B04DE
:2029E0001CD4B1F5804F19D0202A17D0416841F480414160FEF718F807460FE0FEF714F8D6
:202A0000C01B19280AD9606C40F02000606484F841A084F8429084F8409001252068806949
:202A2000C0438006EAD420688069C0F340102843C2D015B92168C1F81CA046F004060125AC
:202A400021688869C20505D54FF4807246F00106CA610125410509D522684FF4806146F090
:202A60000806D1610125800502D40AE0800507D521684FF4007046F00206C861012500E0A1
:202A80008DB12046FFF775FF54F8240B4168074A11404160206A3043206284F81DA084F88D
:202AA0001E9084F81C902846BDE8F08700E800FE10B5C1F3090141EA02410268029C19437B
:202AC0002143506821F000414FF4806303EA5453024C234398430843506010BDFF63FF0313
:202AE0002DE9F0411D4617460E460446DDF8188008E0681C06D0FDF797FFA0EB0800A8427B
:202B00000BD855B12068806936EA000012D00020B842EED00020BDE8F08154F8440F40F07C
:202B2000200044F80409202060700020A07020700120F0E70120EBE72DE9F041202690460E
:202B40000F460446002530E0424639462046FFF721FF10BB20688069C04380061ED42068DF
:202B60008169C943490701D4218D19BB8169C943C90604D41021C1610420606400E0656437
:202B80002068C66120684168114A1140416084F8416084F8425084F8405016E0FDF744FFA4
:202BA000A0EB0800B84208D83FB120688069C0434007C9D40020BDE8F08154F8440F40F05B
:202BC000200044F80409667025700120F3E7000000E800FE70B516460D4604460DE03246BD
:202BE00029462046FFF7D6FE08B1012070BDFDF71BFF801BA84207D835B120688069C04363
:202C00008006ECD4002070BD54F8440F40F0200044F80409202060700020A0702070E4E74E
:202C200070B516460D4604460FE0324629462046FFF7B0FE08B1012070BD681C05D0FDF742
:202C4000F3FE801BA84207D835B120688069C0438007EAD4002070BD54F8440F40F0200044
:202C600044F80409202060700020A0702070E2E72DE9F04186B014216846FDF705FB3048A6
:202C8000C16C41F00401C164C16C01F004010591C16C41F08001C164C16C01F080010591BA
:202CA000C16C41F00101C164C16C01F001010591C16C41F00201C164C06CDFF8888000F058
:202CC0000200059001224FF402514046FDF7A7FE1D4F4FF40046002231463846FDF79FFEE8
:202CE000002240214046FDF79AFEB0100124CDE9000402200025CDE9020569464046FDF773
:202D00009BFDCDE9006469463846CDE90245FDF793FD4020CDE9000469464046CDE9024507
:202D2000FDF78AFD8020CDE900040320CDE9024069464046FDF780FD06B0BDE8F081000031
:202D4000001002400008004800040048124810B5104901601149416000210122C0E90212B0
:202D6000016141618161C1610162FDF7B7FE08B172B6FEE700210848FDF75CFE08B172B6D9
:202D8000FEE700210448FDF780FE002801D072B6FEE710BD00540040780100209129700045
:202DA000114810B50F4901604FF48271416000214FF4E062C0E902120222026101224261B5
:202DC0005202C0E90621016207224162C0E90A1201634163FEF744FF002801D072B6FEE795
:202DE00010BD0000003001401002002016F054B916F08EB90C4810B50A4901604FF4E131E1
:202E00004160002181600C22C160C0E904128161C16101624162FFF74BFC002801D072B699
:202E2000FEE710BD00380140C00200200F4810B50D4901604FF4E1314160002181600C228C
:202E4000C160C0E904128161C16101624162FFF72FFC08B172B6FEE7BDE81040012204493C
:202E60000248FFF7CDBC000000440040440300200E000020FEE7FEE738B500F0BAF800F027
:202E800035F800F04DF8114C0146608010A015F011FD6088A0F56F4116390ED100F07CF8CA
:202EA0000023C3221946C02000F0E6F830208DF800000121684600F019F90A48816889068C
:202EC000FCD40021C1610849416138BD0A0000206E6F7220666C6173682069643A25780D7F
:202EE0000A000000001000A0EBEF180F10B5022000F02EF80446800706D400F04DF844F006
:202F00000201022000F056F8002301221946382000F0B2F801490120087010BD0A000020DD
:202F20000A4808B500784FF0000308B1EF2200E065220021902000F09FF80221684600F07E
:202F400059F8BDF8000040BA08BD00000A00002008B500218DF80010012803D0022803D016
:202F6000032803D0052002E0352000E0152009494FF00003097809B1C32200E041220021CA
:202F800000F07AF80121684600F034F89DF8000008BD00000A00002005484FF00003007858
:202FA00008B1032200E001220021062000F064B80A00002013B5012804D0022809D00328C0
:202FC00009D0012009494FF00003097829B1C32204E03120F6E71120F4E74122002100F091
:202FE0004BF8012101A800F081F81CBD0A000020704770472DE9F0411E4C0D4606466269CE
:20300000A1691C4F20376B1E236122F04062E36842F0806243F00203E3606261A1614FF63F
:20302000FF780AE042460121062000F0C3F800281ED1397806F8011B6D1E002DF2D100282F
:2030400016D1206840F004002060454642460121022000F0AFF800280AD1E06840F00200E2
:20306000E0602A46BDE8F0410021202000F0A2B8BDE8F081001000A02DE9F04314460E4662
:20308000804600254FF6FF791F464A462946202000F090F8002825D1A00945EA006040EAEC
:2030A0008740C4F3011140EA0130C4F3810140EA812004F003010C4D40EA012040EA080053
:2030C000686114F00C0F00D0AE61A0090AD14A460121022000F06EF8002803D1E86840F0FF
:2030E0000200E860BDE8F083001000A02DE9F0411D4C0D4606466169A2691B4F20376A1E51
:203100002261E26821F0406142F00202E26061614FF6FF780AE042460121042000F04AF850
:2031200000281ED116F8011B39706D1E002DF2D1002816D1206840F00400206045464246CC
:203140000121022000F036F800280AD1E06840F00200E0602A46BDE8F0410021202000F0B9
:2031600029B8BDE8F0810000001000A02DE9F041984616460F460446069D08E0681C06D0A3
:20318000FDF752FCA0EB0800A8420AD84DB120688068384000D00120B042EFD10020BDE840
:2031A000F081042084F84100606C40F0010060640120F4E710B5084C06E0A368034000D0E3
:2031C00001238B4203D0521E002AF6D102E00AB1002010BD012010BD001000A02DE9F0415B
:2031E000444C05468846E0680026810728680DD0E16801F00301814216D1A8B1E068696869
:20320000C0F30210401C88420ED120E0012804D0022805D0032807D108E02168890701E003
:2032200021684905002907DB01265FE02168890302D421684903F5E7E1686A686FF00F031E
:2032400021F0730103EB021211430143E160206820F080602060FDF7E7FB074605E000BF4F
:20326000FDF7E2FBC01B022837D820680001F7D4B8F1000F18D0B8F1010F1DD0287D4FF0EB
:203280007E41400801EB4060A96840EA01202169194A114008432061206840F0806020601D
:2032A000FDF7C2FB07461AE0A868297B000240EAC1602169114AECE7288A1149400801EB1D
:2032C0004050A96840EA012021690E4AE1E700BFFDF7AAFBC01B022801D9032606E020688A
:2032E0000001F5D52069A969084320613046BDE8F081000000100240FF80FFF9FF80FF07C2
:203300000000E0FFFF809FFFF8B51C4D06460024A86DC00002D5FDF76DFE0DE0A86D40F0EE
:203320008050A865A86D00F080500090FDF762FEA96D21F08051A965B0F5007F04D0802E4B
:2033400007D94FF003040AE0802E08D9A02E01D804E001D1022402E0702E00D10124084885
:20336000016821F0070121430160006800F00700A04201D00120F8BD0020F8BD00100240F7
:20338000002002400148FEF7EDBB00001002002010B5806A0021A0F84610C187FEF7E0FBDD
:2033A00010BD10B5806A01684A6822F003024A60016E41F010010166012180F85D10FEF7A1
:2033C000CFFB10BD10B5806AFEF772FE10BD38B50546846AFDF728FB024628680068800672
:2033E00023D42068416821F0200141602068416821F0020141606421204600F01AF818B136
:20340000206E40F020002066A068002118B92068C26880680090E187012084F85D00206E34
:2034200018B12046FEF79CFB38BD2046FEF732FE38BDF8B515460E460B46009204460022B1
:203440004FF4C05100F01AF888B93346002280212046009500F086F848B9334600224FF451
:20346000C0612046009500F009F8002804D0206E40F0200020660320F8BD00002DE9FE4FA4
:203480004FF0000A984617460E4604460C9D8DF804A0FDF7C9FA411BA8EB0105FDF7C4FADA
:2034A000814620684FF4C06B0C3002902A480068C0EBC00000EB8000000D6843009043E066
:2034C0005E4506D12FB9029800788DF804009DF80400B8F1FF3F37D0FDF7A6FAA0EB090040
:2034E000A84203D215B1009858B32BE02068416821F0E00141606068B0F5827F0BD1A06883
:20350000B0F5004F02D0B0F5806F04D12068016821F040010160A06AB0F5005F09D1206868
:20352000016821F4005101602068016841F400510160012084F85D0084F85CA0032000F0FE
:203540000DB80025401E0090206880683040B842B6D10020F3E70000240000201EBCBDE875
:20356000E08F00002DE9F8431E46914688460446089DFDF759FA401B351AFDF755FA074612
:2035800025480068C0F3CB30684338E0701C37D0FDF74AFAC01BA84203D215B1009860B30F
:2035A0002CE02068416821F0E00141606068B0F5827F0BD1A068B0F5004F02D0B0F5806F8F
:2035C00004D12068016821F040010160A06AB0F5005F09D12068016821F40051016020684A
:2035E000016841F400510160012084F85D00002084F85C000320BDE8F8830025401E009033
:203600002068816838EA010004D000214945BDD10020F0E70121F9E72400002070B51E463F
:2036200014468A19521E93B20219521E92B2049D00F0BAF87443012280210C48FDF7EFF91B
:20364000002007E035F810100A0A42EA012125F81010401CA042F5D34FF6FF7000EA44028D
:203660002946BDE870400248FEF786BC00080048100200207FB51920FDF7CCF83F4D4FF48F
:203680000044002221462846FDF7C9F91920FDF7C1F8012221462846FDF7C1F96420FDF735
:2036A000B9F83A2000F0E0F8552000F015F9B22000F0DAF832A1D1E90001CDE900010521C5
:2036C000684600F0E3F8022000F0B6F8B72000F0CBF8352000F000F9BB2000F0C5F8192028
:2036E00000F0FAF8C02000F0BFF82C2000F0F4F8C22000F0B9F8012000F0EEF8C32000F0EC
:20370000B3F8122000F0E8F8C42000F0ADF8202000F0E2F8C62000F0A7F80F2000F0DCF811
:20372000D02000F0A1F8A42000F0D6F8A12000F0D3F8E02000F098F813A00FC88DE80F0084
:203740000E21684600F0A2F8E12000F08DF812A10FC98DE80F000E21684600F097F82120E0
:2037600000F082F8112000F07FF8132000F07CF804B02920BDE8704000F076B800040048F4
:203780000C0C003333000000D0040D11132B3F544C180D0B1F230000D0040C11132C3F4477
:2037A000512F1F1F202300002DE9F843DFF8848007461C46B8F8020015460E46874203D12F
:2037C000B8F80400854214D0380A8DF800008DF80170280A8DF802008DF803502A2000F002
:2037E00043F80421684600F051F8A8F80270A8F80450B8F806004546864202D12889844229
:2038000012D0300A8DF800008DF80160200A8DF802008DF803402B2000F026F8042168467C
:2038200000F034F8EE802C81BDE8F8432C2000F01BB800000000002010B50446362000F0ED
:2038400013F854B1012C0AD0022C0AD0032C0AD16020BDE8104000F03FB8C020F9E7A02063
:20386000F7E70020F5E710BD01B5002280210548FDF7D5F84FF0FF33012269460248FEF798
:20388000B3FA08BD00080048100200202DE9F0470C460646012280210D48FDF7C0F84FF441
:2038A00080374FF6FF784FF0FF390DE0BC4201D3404600E0204685B24B462A463146054897
:2038C000FEF792FA2E44641B002CEFD1BDE8F087000800481002002001B501228021054825
:2038E000FDF79DF84FF0FF33012269460248FEF77BFA08BD00080048100200207047FDF756
:20390000B5BA10B596B044216846FCF7BDFC142111A8FCF7B9FC4FF40070FDF737FB08B146
:2039200072B6FEE701210804CDE90010022003240A90CDE90B4114210D910721CDE90E10D2
:2039400010906846FDF756FE08B172B6FEE70F20CDE911040020139014901590042111A827
:20396000FDF742FD002801D072B6FEE716B010BD0248016841F470010160704788ED00E0B5
:203980000148FEF760BC00007402002070B50268164B4FF08046984201D0B04203D122F0BF
:2039A00070044A682243124C124D984205D0B04203D0A04201D0A84203D122F44076CA68DC
:2039C00032434E6922F08002324302608A68C2620A688262984203D0A04201D0A84201D1C8
:2039E000096901630121416170BD0000002C0140004001400044014090F82410C90706D02B
:203A000001684A68836A22F400321A434A6090F82410890706D501684A68C36A22F4803218
:203A20001A434A6090F82410490706D501684A68036B22F480221A434A6090F82410090784
:203A400006D501684A68436B22F400421A434A6090F82410C90606D501688A68836B22F49E
:203A600080521A438A6090F82410890606D501688A68C36B22F400521A438A6090F8241013
:203A8000490611D501684A68036C22F480121A434A60016CB1F5801F06D101684A68436C65
:203AA00022F4C0021A434A6090F82410090606D501684A68806C22F4002202434A6070479C
:203AC000F8B500260446C0F88060FCF7ADFF0546206800686FF07E47000708D52B460022BC
:203AE0004FF400112046009700F042FA60B92068006840070AD52B4600224FF4800120465D
:203B0000009700F035FA08B10320F8BD2020A067E067266684F874600020F8BD10B5806A70
:203B20000021A0F85A10A0F85210FEF776FC10BD016851E8002F22F4907241E80023002BD4
:203B4000F6D10168083151E8002F22F0010241E80023002BF5D1016E012908D1026852E82C
:203B6000001F21F0100142E80013002BF6D12021C167002101664166704710B5B0F85C209D
:203B8000C36F0168222B04D0088B40F00800088310BD898C436D11401980416D891C41659E
:203BA000B0F85A10491EA0F85A10B0F85A100029EED1026852E8001F21F4907142E800137A
:203BC000002BF6D10168083151E8002F22F0010241E80023002BF5D12021C1670021416666
:203BE000026E012A02D0FEF735FE10BD0166026852E8001F21F0100142E80013002BF6D1E8
:203C00000168CA69D243D20601D410220A62B0F85810FEF700FC10BD10B5B0F85C20C36FBF
:203C20000168222B04D0088B40F00800088310BD898C1140426D1170416D491C4165B0F8E0
:203C40005A10491EA0F85A10B0F85A100029EED1026852E8001F21F4907142E80013002B56
:203C6000F6D10168083151E8002F22F0010241E80023002BF5D12021C16700214166026E80
:203C8000012A02D0FEF7E6FD10BD0166026852E8001F21F0100142E80013002BF6D101689E
:203CA000CA69D243D20601D410220A62B0F85810FEF7B1FB10BD00002DE9F04104460168F9
:203CC00080682269E3691043626900251A431043714F0A68714B1A4002430A60206841680A
:203CE000E26821F44051114341602168A069B94201D0226A10438A6822F4306202438A60D9
:203D00006749236867488B420DD1D0F8880010F0030006D0012847D0022843D0032830D13C
:203D200044E001212EE060498B420BD1D0F8880010F00C0034D0042836D0082832D00C28E5
:203D40001FD133E059498B420BD1D0F8880010F0300025D0102827D0202823D0302810D1FD
:203D600024E0BB420DD1D0F8880010F4406017D0B0F5806F18D0B0F5006F13D0B0F5406FC2
:203D800014D010214A4A00264FF40040BB422FD171B102290FD004290FD0082973D10FE038
:203DA0000021EFE70221EDE70421EBE70821E9E7FDF7AAFB03E0104602E0FDF7C9FBE8B31E
:203DC000626802EB420181425DD8B0EB023F5AD8010E03025008181871410023FCF707FA7E
:203DE000344AA0F5407191424DD82168C8604BE0E3694FF6EF77834228D1092943D2DFE868
:203E000001F005080B420D4242421000FDF77CFB06E0FDF78BFB03E0104602E0FDF798FB07
:203E200060B14100606801EB5001B1FBF0F0A0F11001B94227D84FF6F07100E024E0014038
:203E4000C0F3420001432068C1601DE009291AD2DFE801F005080B190D1919191000FDF720
:203E600053FB06E0FDF762FB03E0104602E0FDF76FFB48B1616800EB5100B0FBF1F0A0F129
:203E80001001B94205D9012566662846A666BDE8F08180B2A9E7000000800040F369FFEFEA
:203EA000003801400010024000440040004800400024F400FFFC0F0030B54165A0F858206E
:203EC000A0F85A200022426681684FF48055FF23A94204D1016971BB40F2FF1131E07F2497
:203EE00039B3B1F1805F29D0A0F85C20C0F880202221C1670168083151E8003F43F0010334
:203F000041E80034002CF5D18168A94201D10169E9B11549416680F874200169C9B1026849
:203F200052E8001F41F4907142E80013002BF6D118E0016941B9A0F85C30D7E7016919B151
:203F40003F21A0F85C10D1E7A0F85C40CEE70749E0E7026852E8001F41F0200142E80013F3
:203F6000002BF6D1002030BD193C00087B3B00082DE9F0479A4617460E4604464FF00009B7
:203F80004FF02008089D4AE0681C48D0FCF74CFDA0EB0A00A8422AD84DB320680168490751
:203FA0003DD5C069C043000539D421684FF400600862206850E8001F21F4D07140E80012AC
:203FC000002AF6D12068083050E8001F21F0010140E80012002AF5D1C4F87880C4F87C8030
:203FE000C4F8808084F874900320BDE8F087216851E8000F20F4D07041E80002002AF6D105
:204000002068083050E8001F21F0010140E80012002AF5D1C4F87880C4F87C80E2E720688F
:20402000C06936EA000004D00020B842ACD00020DBE70120F9E700000148FEF7EFB9000004
:2040400044030020FEE7000000B515488BB00078C00721D1124814F078FCE8B100203F21AB
:20406000CDE90710104A09900A90CDE904020D49069103900122042103208DE807000E2392
:2040800013220A490A4807F09BFA0A4A0A49FCF71DF90348AFF300800BB0054800BD0000D8
:2040A0006C00002058E6020800E8020870DF020850360020000000080BB6000800B5154858
:2040C0008BB00078C00721D1124814F03EFCE8B100203F21CDE90710104A09900A90CDE9B3
:2040E00004020D49069103900122042103208DE8070014230A220A490A4807F061FA0A4AA5
:204100000A49FCF7E3F80348AFF300800BB0054800BD0000700000205CE602086CE8020812
:204120007CE0020878360020000000080BB6000800B515488BB00078C00721D1124814F09E
:2041400004FCE8B100203F21CDE90710104A09900A90CDE9040203900C490120069104216B
:20416000CDE90001024602901E230A490A4807F027FA0A4A0A49FCF7A9F80348AFF3008008
:204180000BB0054800BD00007400002060E60208D8E8020808E10208A036002000000008BB
:2041A0000BB6000800B515488BB00078C00722D1124814F0CAFBF0B100203F21CDE90710A6
:2041C00009900A9001200E490E4A03900490CDE9052104210322CDE9002102900A23522285
:2041E00009490A4807F0ECF9094A0A49FCF76EF80248AFF300800BB0044800BD6000002090
:2042000020E10208E8E6020810C50208D8350020000000080BB6000800B515488BB0007819
:20422000C00721D1124814F090FBE8B100203F21CDE90710104A09900A90CDE904020D4957
:20424000069103900122042103208DE807000E2317220A490A4807F0B3F90A4A0A49FCF701
:2042600035F80348AFF300800BB0054800BD00006400002028E1020838E702088CC90208C0
:2042800000360020000000080BB6000800B516488BB00078C00723D1134814F056FBF8B11D
:2042A00000203F21CDE9071009900A90022004AB0E4A0F49039083E807000122042105208B
:2042C0008DE80700142340F279120A490A4807F077F90A4A0A49FBF7F9FF0348AFF3008064
:2042E0000BB0054800BD0000680000202CE1020880E70208D0CA02082836002000000008BF
:204300000BB6000810B516488CB00078C00724D1134814F01AFB00B300203F22CDE90720BC
:204320001049114ACDE90901104BCDE9053204240221CDE903140C22CDE9002102901223DD
:2043400040F211120A490B4807F03AF90A4A0B49FBF7BCFF0248AFF300800CB0054810BDA1
:204360005800002068AE010818E1020864E6020810B6020888350020000000080BB60008D1
:2043800000B515488BB00078C00722D1124814F0DCFAF0B100203F22CDE907200F49114AB8
:2043A000CDE909010E4903900490CDE905210422CDE90002012102910A4616230A490B4821
:2043C00007F0FEF80A4A0B49FBF780FF0248AFF300800BB0054800BD5C00002068AE01080B
:2043E0001CE10208E4E6020800C50208B0350020000000080BB6000801F018BAFEB506467B
:20440000194800900D4606F184006946ADF80420044610F0C7F91549A08D096819B1144A37
:204420001288904201D3AFF3008011F810001149096851F820000168C96A8847C0F11A0097
:2044400001B22068026B20469047204613F090FE06F1580002A9ADF8085004460BF047FD00
:20446000204613F085FEFEBDE0D50108000100200C0100200801002010B501F0D9F901498E
:20448000016010BDECAE0108024901608421024A0A50704778B20108A8D2010810B50446D8
:2044A00001F050FB04F56270C4F8A001012084F8700310BD10B590F87023002A36D190F822
:2044C0007D23002A32D1032916D0012918D038292CD036292AD0022928D190F8860398B1B7
:2044E000012817D002281BD003281FD103F05EFFBDE8104002F09EBEBDE8104000F0D8BA72
:20450000BDE8104000F013B803F050FFBDE8104002F07CBE03F04AFFBDE8104002F002BEA5
:2045200003F044FFBDE8104002F038BE10BD012280F87D230021C0F87413D0F89813491E26
:20454000C0F8981302D50321C0F8981380F87C23704770472DE9FE4F0446C06B0168496922
:204560008847014604F1C40002902C3000905830002504F5307B04F5217704F5EC7A04F5B4
:20458000D27904F5BA7604F58E780190012915D094F87013002910D0D4F86C03401CC4F89D
:2045A0006C0301297DD002297CD003297BD004297AD0052979D0062978D00CE1029800211A
:2045C00080F8251094F870130029F6D0D4F86C03401CC4F86C03012902D00229ECD0FAE0B1
:2045E00014287DD2B4F9F81080B2C1F58C7101EBD17141F34F0214230021F63407F0F8F979
:204600008146B4F900001423C0F1B40002B2B4F87602002180B207F0EBF92188084402B2DB
:20462000B4F90200C0F5AA7000EBD07109EB610001B200980EF078FAB4F87602B4F95A2075
:2046400080B21423002107F0D3F9B4F85A10B4F95820401A01B201980EF066FAB4F87602AA
:204660001E2380B2FF22002107F0C2F988F82800404613F07DFDB4F92A00A4F8880234F8FF
:204680002C1FC0F11600A4F85E1202B2B4F84A02142380B2002104F24A2407F0A9F9814602
:2046A00005E046E083E0A4E0AEE00AE130E1B4F914001423C0F1CA0002B22088002180B25C
:2046C00007F096F9A18A084402B2618AA9F10A00084401B24046A4F55B740EF025FA00E0B0
:2046E00001E040466FE0022071E080B21423FF22002107F07DF9C1B286F8281089F832108D
:204700008AF8321087F83610584605F021F9304613F02EFD484613F02BFD504613F028FD48
:20472000384613F025FD58464DE000BF84F870534FE01428D7D2B4F9F81080B2C1F58C715F
:2047400001EBD17141F34F0214230021BA3407F04FF9B4F93E10B4F93C20C1F5A07101EB6A
:20476000D17100EB610001B200980EF0DDF9B4F8B202142380B28C22002107F039F9C0F11A
:20478000A00001B2A4F1220034F91C2C8046BA3C0EF0CAF9B4F8F400B4F89C10401A00B219
:2047A0004146002800DC0020A8F808000AE014280CD280B21423FF22002107F019F9414667
:2047C00088F82800084613F0D3FC04E0032084F87003C4F86C5394F87D13002908D0D4F8B7
:2047E0007403401CC4F8740301297DD002297CD00FE11428EFD3042084F87003401FC4F8A9
:204800006C53A4F87E03E6E7B4F97E13491C0FD1B4F82011A4F87E13B4F82211A4F8801354
:20482000B4F8F410A4F88213B4F8F610A4F88413142844D2B4F9821380B2C1F585710AB284
:204840001423002104F55B7407F0D2F88146B4F918001423C0F1B40002B22088002180B2A0
:2048600007F0C6F8218B0844E18A02B201EB090001B200980EF058F9B4F912001423C0F136
:20488000160002B22088002180B207F0B1F88146B4F914001423C0F1CA0002B220880021FC
:2048A00080B207F0A5F8A18A084402B2618AA9F10A00084401B24046A4F55B7423E0052063
:2048C00085E7142822D2B4F9502180B21423002107F08EF8B4F85011B4F94E21401A01B2E1
:2048E00001980EF021F901E01BE055E0B4F86C03B4F9A22080B21423002107F079F8024632
:20490000B4F9C81002980EF00FF964E706205EE701218BF82510D4F86C031428BFF406AF03
:20492000E3E614282FD280B21423FF22002107F05FF8C0B2C0F1FF0586F82850304613F0E2
:2049400017FC87F83650384613F012FCB4F97C01C0F5A07000EBD07040F34F0794F87C0302
:2049600010B14FF0FF3500E00125B4F87403142380B22822002107F03BF810FB05F0B4F92F
:204980007A2138443CE0022084F87D032046C4F8745300F0A3F83CE0142836D280B2142389
:2049A000FF22002107F024F8054686F82800304613F0DEFB87F83650384613F0D9FBB4F958
:2049C0007C01C0F5A07000EBD07040F34F0794F87C0310B14FF0FF3500E00125B4F8740379
:2049E000142380B22822002107F002F810FB05F0694201EB8101B4F97A2107EBC101084491
:204A000001B230460EF090F803E084F87D53C4F87453E06B016809698847C1B22068826A59
:204A200020469047E06B0168096A8847C5B2E06B0168C9698847C6B2E06B0168896988472A
:204A4000C1B22B463246584606F0CEFC584600F002B813F08DBB1EBCBDE8E04FFFF7F9BFAD
:204A600010B51179002922D0012920D1D0F8980358B101280FD0022813D0032817D103F02A
:204A800095FCBDE8104002F0D5BB03F08FFCBDE8104002F0BBBB03F089FCBDE8104002F0D4
:204AA00041BB03F083FCBDE8104002F077BB10BD012180F87D130021C0F87413D0F8982395
:204AC000521CC0F89823032A01DDC0F8981380F87C137047FFF7ECBFFFF729BD10B5D0F8BF
:204AE00078138CB0491CC0F8781390F87C2390F8861322B109B1491E04E0032102E00329F5
:204B000020D0491C80F8861311F0FF0100F5BA7200F5217418D0012920D0022928D0032932
:204B20000ED11920ADF80C0003A910460BF0DFF925210AA810F07AF9014620460FF032FE90
:204B40000CB010BD0021DDE71620ADF80000694610460BF0CCF9222104A8EBE72120ADF8A0
:204B6000040001A910460BF0C2F9232106A8E1E71F20ADF8080002A910460BF0B8F92421E3
:204B800008A8D7E710B501F00BF80D4901600D4B00F562710C4CD3E9002310C181E80D0099
:204BA000002180F87D13C0F86C13C0F8741380F88613C0F89813012180F8701310BD0000F8
:204BC0007CAF0108689C010864D0010810B50A4901600A49C0F8C01200F53D700FF092FED0
:204BE00070380FF08FFE783809F002F8A0F503700349016010BD000040B3010844BC010857
:204C0000BCCF010810B5044601F0CCF9E06B0168496BBDE81040084702480168491C016016
:204C2000704700005000002070B50D4E05460D49706805F5DB64401C70600840012805D1A8
:204C4000E86B0168496C8847002020633079C00705D1E86B0168896C88470020206370BDDB
:204C60005000002001000080C430032908D0012909D0022903D106480168491C0160704715
:204C800000220A2102E000226FF009010DF00CBF5000002010B50446C06B0168896B8847BC
:204CA000E06B0168896CBDE81040084770B50446C06B0168096B8847C1B22068826A204674
:204CC00090472068816B20468847104E04F1C4053078C00707D1E06B0168896A8847014634
:204CE000284608F069FE0A4930680840012807D1E06B0168C96A88470146284608F05CFEF6
:204D00002846BDE8704013F033BA0000500000200100008070B50446C06B016809698847AB
:204D200003462EA20A2104F214700DF0CFFB04F58F6005460FF096FD284613F019FAE06B5A
:204D4000016849698847034624A20A2104F5EA600DF0BCFB04F5A76005460FF083FD284600
:204D600013F006FAE06B01688969884703461BA20A2104F5E5600DF0A9FB04F59760054670
:204D80000FF070FD284613F0F3F9E06B0168C9698847034611A20A2104F23C700DF096FB3E
:204DA00004F59F6005460FF05DFD284613F0E0F9E06B0168096A8847034608A20A2104F203
:204DC00064700DF083FB04F5AF6004460FF04AFD2046BDE8704013F0CBB900002564000021
:204DE00010B501F009F90149016010BDB8AF010801F050BC10B502F05FF902490120087023
:204E000010BD00002800002002F072B902F071B902F076B902F075B902F074B902F073B9C6
:204E200002F07DB97047000070B5014643F2942400F1140200F12C030D1900F54A500D61F0
:204E4000C1E902301348C1E90002104607F006FD114940F8181B07F001FD1049016043F276
:204E60005421084407F0FAFC0D490160A0F54A5200F5B67143F2EC35143001F00DFF001BCE
:204E8000284402F0FFFC451B281902F073F9284670BD0000CCB0010878D5010844D5010822
:204EA000ACD5010810B50A49016043F29421084402F050FA143807F0D9FCA0F548505438AC
:204EC00007F0D4FC183807F0D1FC143810BD0000CCB0010870B5044600F19805C43004F074
:204EE000BDFD05F1C40004F0B9FD05F5887004F0B5FD002504F50376042D12D205EB8501DA
:204F0000C1EB851106EB810050F8041FD1F8841088476D1C042DEFDB002504F5B864022D59
:204F200001D3AFF3008005EB8501C1EB851104EB810050F8041FD1F8841088476D1C022D04
:204F4000EDDB70BD10B500F5FB60814205D103F02DFABDE8104002F00DB910BD70B50446AB
:204F6000164600F503701D460A46814208D11068314683681046984701462068C36A0BE028
:204F800004F5B86082420CD11068314683681046984701462068036B2A462046BDE87040E8
:204FA000184770BD704770472DE9F04F8DB00CF069F800279949C763016000F140042621F8
:204FC0002046FBF761F920460CF0B6F805469448FF24286085F82640AF624FF6FF782C352C
:204FE00003AEADF80C8026212846FBF74DF928460CF0A2F805468B482860BDF80C00E8840B
:2050000085F82840314628460AF071FF05F12C0009F0C8F88449C0F874110423EC22834976
:2050200000F5BC7013F07FFC8149C0F8B0130223EC22804900F56D7013F075FC00F5EC75F4
:2050400026212846FBF720F928460CF075F80546DFF8E8A17848C5F828A02860A5F82C80F8
:205060002F6325F8347F2621AC70EF702F716F7108352846FBF708F928460CF05DF8876246
:2050800080F82C70012180F824106D490160A0F82E80A0F830806B4980F8324000F13406C0
:2050A000D1E90023A0F5FB64674DC6E90054C6E9022300F14405D1E90221644B2B60E960FA
:2050C000C5E90142F0200090002204F140004FF4A073114681460DF0D5FC0022C84611461F
:2050E00010460AF0FDFEC8F82800002204F16C00114601900DF00AFD1120ADF80C0003A980
:2051000001980AF0F4FE7620009004F19800C82356223C2183460DF0B5FC0021584608F069
:205120007BFE0121584608F051FE4949584602F072FE0A21584602F0CCFE0A21584602F01D
:20514000C5FE0721584608F099FE2821584608F0B6FE00221146584608F0BAFE0022114664
:20516000584608F0A6FE00222821584608F068FE04F5B8632A4604F503715846009508F072
:2051800036FE00221146584602F0E2FC1D20009004F29C70DC230E22322180460DF072FC72
:2051A000AB228D2110200AF09BFEC8F83000A8F834700420ADF8200007A9CDF81CA04046DD
:2051C0000FF0F0FA0B22122104F5FB600DF09EFC0720ADF82400ADF80C0009AA03A904F5A2
:2051E000FB600AF085FF49462046C4F800680BF04DFD204601990BF049FD594620460BF037
:2052000045FD414620460BF041FD04F5FB6120460BF03CFD0DB0204600F01CB8E0B00108B7
:205220004CCD0108D4CE0108C0C60108E1730008D8C60108E5750008A8D20108E0D501086C
:205240003CCF010808A0010894D001087CD0010811B9000830BCBDE8C08F000010B50C49FB
:20526000016000F29C700FF04DFBA0F5EE7007F021FBA0F56D7007F00DFBA0F5BA71054A02
:205280000A60BDE81040A0F503700AF0E7BD0000E0B00108E0B9010801F02ABA002180F860
:2052A000251001684969084710B501F02DFA0149016010BD1CB1010870477047704710B53A
:2052C00000F5AA72914202D10168096B05E000F5C472914204D10168C96ABDE810400847A2
:2052E00000F5DE70814205D103F060F8BDE8104001F040BF10BD10B5DC30814205D103F078
:2053000055F8BDE8104001F035BF10BD2DE9FF5F0BF0B8FE00278E49C76340F8401B08F0C1
:205320006DFF2C3008F06AFF00F12C044FF6FF70ADF800006D4626212046FAF7A5FF20466F
:205340000BF0FAFE044683482060BDF80000E084FF2084F82800294620460AF0C8FD7E498E
:20536000216084F829706785A785E78527866786A786E786A763E76304F14400276414F0C3
:2053800053FA78300AF0D0FE34300AF0CDFE34300AF0CAFE7149A0F5DE7400F13406D1E97B
:2053A0000002C6E902026E4BC6E9003404F50070D1E90221C0E902216A4BC0E90034804632
:2053C0004FF0F0094FF4A07B002204F140005B4611468246CDF800900DF054FB00225546C2
:2053E000114610460AF07CFDA862002204F16C00CDF800905B46114681460DF043FB00228F
:205400004D46114610460AF06BFDA862002204F19800114603900DF079FB0820ADF8040005
:2054200001A903980AF063FD3A46322304F5887004F1DC051146074600930DF023FB0520BA
:2054400038869922662100200AF04AFD0746CC22992100200AF044FD00906622332100200F
:205460000AF03EFD83469922662133200AF038FDAF660099E966C5E91CB02868D0F8881003
:20548000284688473220034642420090002128460DF0F8FA04F5AA70552210218346C4F862
:2054A0000C810DF033FB1020ADF808000F20ADF8040002AA01A958460AF01AFE04F5C4704C
:2054C00056224FF490718046C4F87C610DF01EFB1D20ADF804001C20ADF8080001AA02A976
:2054E00040460AF005FE04F5DE700B2212210746C4F8B0610DF00AFB0720ADF80400ADF8F1
:20550000080001AA02A938460AF0F2FD51462046C4F8E4610BF0BAFB494620460BF0B6FB77
:20552000204603990BF0B2FB294620460BF0AEFB594620460BF0AAFB414620460BF0A6FB1A
:20554000394620460BF0A2FB04B0204600F00CB8B0B10108D4CE0108D0BE0108F89F0108B4
:20556000ACD00108C4D0010830BCBDE8C09F000010B5054940F8DC1B08F03AFBBDE81040B5
:20558000DC380AF071BC0000B0B101087047704710B50446806802F05DF9002804D0A068B5
:2055A000BDE8104002F056B910BD00000023034A836002601C324260C1607047ECB1010805
:2055C0007047000000487047709C01082A207047704770470023034A8360026018324260F0
:2055E000C160704718B20108704710B5044601F003FAE06B0168C969884742F24C20C442F1
:2056000006D02044BDE810404FF48051FAF73CBE10BD00002DE9F74F00F5C4750446A98D85
:205620009046A1F57F402E464FF0000AFF3808D03448006818B134480088814203D3AFF387
:20564000008000200AE03148006812F031FB01462868EA6B0023C76E2846B8472C4DB4F99A
:205660009211B4F8D620AA8042F24C22D44247D014F50E7F44D0B8F1000F41D0914604F1AD
:20568000CC0B04EB090788420FDD4FF480513846FAF7FAFDB5F902200021584607F08FFEF1
:2056A000A5F800A0A5F802A00020B5F90410B5F902301944814208DA081A02B22A80981A78
:2056C00068800021584607F07AFE3846FAF7E7FD0546611901EB090042460199FAF7BBFDDC
:2056E00005EB080082B204F50E7138460CF0ABFE032086F83900304600F00CB812F038BDE8
:2057000000F00DB8000100200C01002004010020480000201EBCBDE8E04FFFF7EFBF1EBCCD
:20572000BDE8E08F10B5362917D0342915D0CC30012909D003290AD002290ED102F036FED3
:20574000BDE8104001F016BD6FF01D0200E01E22BDE81040002107F032BE10BDC06B016894
:20576000096A084730B50446C06BA1B00168C96B8847012810D104F5005011A1D0F8482219
:20578000521CC0F84822684613F0A4F8206880226946C36A2046984704F1CC00054612F0D3
:2057A000E7FC0721284607F0E5FDE06B016849698847C1B22068826A2046904721B030BD80
:2057C000436F6E6669672025643A20436F6E666967207375636365737366756C6C792E2087
:2057E0005265706C793A4F4B200A000010B501F011F90149016010BD40B2010810B5084956
:20580000016000F5FE700FF07DF874380FF07AF8044940F8BC1D044940F8CC1D10BD00009A
:2058200008B5010850C80108BCCF0108704700002DE9FF470DF086F900255949856240F878
:205840002C1B08F0DBFC00F12C064FF6FF7401AFADF8044026213046FAF716FD30460BF08C
:205860006BFC50490160BDF80410C1844FF0FF08064680F8288039460AF039FB2C362621B1
:205880003046FAF701FD30460BF056FCDFF81C914549C0F8289001608485056320F8345FE1
:2058A00080F80280C57005714571083008F0A6FC2C3008F0A3FCA0F1EC04C8202081782026
:2058C000608107460090002204F12C00C923114680460DF0D7F84646FF22F321E8200AF02F
:2058E000FFFAB06204F158001E22442182460DF00DF92920ADF8040001A950460AF0F7FAC3
:205900001A20009004F1840052235E223C2106460DF0B8F8AB228D2110200AF0E1FA3063E6
:20592000B5861B20ADF80C0002A9CDF8089030460EF038FF002204F1C000032311460546EE
:2059400000970DF09FF80422114605200AF0C8FAA86204F1EC00009703230022C5210746C1
:205960000DF090F80222114608200AF0B9FAB862414620460FF0FDF9514620460FF0F9F968
:20598000314620460FF0F5F9294620460FF0F1F9394620460FF0EDF904B02046BDE8F0877F
:2059A00078B20108D4CE0108A8D20108E0D5010810B5044601F078F908480168012081F804
:2059C0006800052008860020421EC4F80C0504F58470BDE81040012102F0BAB8F8000020DF
:2059E00070B5044600F584700D4606460FF0A9FA00282DD1362D2BD0342D29D000210223EA
:205A0000421E012D09D0032D1AD0022D20D102F0CDFCBDE8704001F0ADBBD4F80C05401C43
:205A200011E0C4F80C1503E0002801DAC4F80C35B4F80C0501B23046BDE8704002F088B848
:205A4000D4F80C05401EC4F80C050228ECDDE8E770BD000010B5044607480168002081F8EF
:205A600068000886E06B0168096A8847E06B0168896ABDE810400847F800002010B5044628
:205A8000C06B016809698847C1B22068826A2046BDE81040104708463AB1012A08D0022A30
:205AA00009D11A221821FEF7A9BC1B222921FAE71C222721F7E7704710B5044621B10129AF
:205AC00006D0022914D108E0E06B0168496A0EE002F06CFC01F09AFB0AE0012104F58060DE
:205AE00084F8251412F044FBE06B0168C969884704F19800BDE8104012F03ABB70B501F06C
:205B000017F90A4901600A4B044600F5A260D3E90023084D0560C0E901420146C36004F543
:205B2000847002F0D9F9204670BD000008B30108609C0108DCD001080149016001F042BA04
:205B400008B3010870477047704700F5D272914202D10168C96A05E000F5EC72914202D103
:205B60000168096B0847704710B500F50370814215D102F01BFC01F0E9FA02F017FC01F099
:205B8000D1FA02F013FC01F009FB02F00FFC01F051FB02F00BFCBDE8104001F037BB10BD6C
:205BA0002DE9F04F97B00BF06DFA0026E749C66340F8401B08F022FB2C3008F01FFB2C30F6
:205BC0000FF01AF94FF6FF7411A9ADF844402C300AF0A6F910A9ADF840402C300AF0A0F956
:205BE0000BA9ADF82C402C300AF09AF92C3008F005FB01A9ADF804402C300AF091F9D44913
:205C000040F82C1B012140F8086900F80C1B0AF08BFA34300AF088FA343013F005FE7830AA
:205C200005462621FAF730FB28460BF085FADFF82893C849C0F8289001608485066320F8D0
:205C4000346FFF218170C67006714671083003F08DFEC249A0F530748C30D1E90023C0E9F0
:205C60000223BF4FC0E90074054604F55770D1E90221C0E90221BB4BC0E9003480464FF038
:205C8000F00A002204F140004FF4A0731146CDF800A013900CF0F6FE002211461046139F8D
:205CA0000AF01EF9B862002204F16C00CDF800A04FF4A073114614900CF0E4FEFF2211462A
:205CC0001046149F0AF00CF9B8627720009004F19800282344228C2102900CF0D3FE00220F
:205CE00004F1C400114607460CF010FF1420ADF82C000BA938460AF0FAF8394602980FF001
:205D000038F804F1F00044228C2107900CF0FEFE1520ADF82C000BA907980AF0E8F804F5A0
:205D20008E708B221E2106900CF0F0FE2220ADF82C000BA906980AF0DAF806984FF48173F3
:205D4000B92280F828600220009004F5A470594215900CF097FEB5228E211520159F0AF06F
:205D6000BFF8B86204F5BA7041227B2108900CF0CDFE1620ADF82C000BA908980AF0B7F8CD
:205D800008985522102180F8286004F5D27083460CF0BCFE1020ADF840000F20ADF82C00EC
:205DA00010AA0BA958460AF0A3F9C4F8CC5104F5EC708BF8326056224FF4907182460CF07E
:205DC000A5FE1D20ADF840001C20ADF82C0010AA0BA950460AF08CF9C4F800528AF832604C
:205DE0003223324604F5107004F503751146074600930CF047FE052038869922662100202F
:205E00000AF06EF80746CC22992100200AF068F801906622332100200AF062F80C9099227B
:205E2000662133200AF05CF8AF660199E9660C99C5E91C102868D0F888102846884732203E
:205E4000034600906FF04602002128460CF01AFE2020C4F83C82009004F521704FF4A073F5
:205E60000C22002107460CF00DFEDE22BE2140200AF036F83863BE8687F836602220ADF83D
:205E80003C000EA9CDF8389038460EF08BFC1920009004F53070642393226F2180460CF08F
:205EA000F1FDC7222C2124200AF01AF80146404603F051FD1920ADF83C000EA9CDF8389002
:205EC000404603F037FD0121404603F03EFD0321002388F82F1040461A46194605F084FA81
:205EE00088F82560204613990AF0D0FE204614990AF0CCFE204602990AF0C8FE2046079925
:205F00000AF0C4FE204606990AF0C0FE204615990AF0BCFE204608990AF0B8FE5946204684
:205F20000AF0B4FE514620460AF0B0FE294620460AF0ACFE394620460AF0A8FE4146204625
:205F40000AF0A4FE17B0204600F00EB840B30108D0C00108A8D20108E0D5010830A0010813
:205F6000F4D001080CD1010830BCBDE8C08F000010B50A4901600A49C0F8C01200F53D7096
:205F80000EF0C0FC70380EF0BDFC783807F030FEBDE81040A0F5037009F06CBF40B30108F6
:205FA00044BC0108704770477047704710B500F5BF62914205D102F0F9F9BDE8104001F0AE
:205FC000D9B800F5CD62914202D10168C96A05E000F5D462914204D10168496BBDE8104000
:205FE000084710BD00F1C403994203D101680B6B06CA1847704700002DE9F04F97B00BF0C2
:2060000041F80027FE49C76340F8401B08F0F6F82C3008F0F3F800F12C044FF6FF70ADF87D
:20602000100004AD26212046FAF72EF920460BF083F8F4490160BDF81010C184FF2180F8AE
:2060400028100446294609F052FF04F12C0004F5BC723C2105F050FCEB490160012180F8F0
:20606000241000F50F7006F039F8383007F0F6FBE64947610160183007F032FBE44940F8F8
:20608000441B07F02DFBE34940F8441B05F016FDE14940F8501B05F011FDE04940F8501B1B
:2060A00007F096FD403007F093FD403007F090FD403007F08DFD403007F08AFD403007F025
:2060C00087FD40300AF030F834300EF0FDFB3C3005F07EF9383005F07BF938300EF0F4FB52
:2060E000CF4A00F1B405A0F5DB64D2E90013CD4EC5E90064C5E90213D2E9021200F1C406C1
:20610000C94B204608C686E807004FF4965104F2AC70361F07F058FA04F140004FF0F0097B
:206120004FF4A07A0022534611468046CDF8009006900CF0A7FC00221146104609F0D0FE0A
:20614000C8F8280004F16C000022534611468046CDF8009007900CF095FCFF2211461046D7
:2061600009F0BEFEC8F8280004F1980000221146804608900CF0CAFC1120ADF8100004A9C9
:20618000404609F0B4FE04F1C40042F2107841468146019007F051FC7B200090C9235422A9
:2061A0003C2148460CF06EFC00231A4619464846009706F083F900231A461946484600970E
:2061C00006F029FA40F22B120021484607F00CFC3146484606F0C1F804F554704146064645
:2061E00007F0F0F9C5229721142009F079FE0146304607F003FD0621304607F063FA0121B5
:20620000304607F069FA3146019806F0A9F84646414604F56570804607F0D4F9C5229721FD
:20622000142009F05DFE0146404607F0E7FC1E21404607F047FA0121404607F04DFA4146C5
:20624000019806F08DF804F576703146804607F0B9F90621404605F021FC202112A80EF0AD
:20626000E5FD0146404605F023FCC5229721142009F036FE0146404607F0C0FC41460198BB
:2062800006F0C2F804F585603146804607F09AF91E21404605F002FC212112A80EF0C6FD34
:2062A0000146404605F004FCC5229721142009F017FE0146404607F0A1FC4146019806F0C4
:2062C0002AF804F540703146804607F07BF904F54E761622C4211E2009F002FE70613146F2
:2062E000404603F03DFA0321404605F0E3FD4146019806F035F804F58F6054220C210C9005
:206300000CF004FC0A22F02152200C9E09F0E8FD30630C980D21878612A80EF087FD12F09A
:20632000B1FA034604F2147040A20A2106460CF0CDF8C4F8B4640C980EF094FA0C2112A8EA
:206340000EF074FD01460C980EF02CFA04F59760782205210B900CF0D9FB0A22F0215220F5
:206360000B9E09F0BDFD30630B980F21878612A80EF05CFD12F086FA034604F5E5602BA267
:206380000A2106460CF0A2F8C4F8F4640B980EF069FA0E2112A80EF049FD01460B980EF0C3
:2063A00001FA04F59F609C22052183460CF0AEFB5E460A22F021522009F092FD3063ABF887
:2063C0003470112112A80EF031FD12F05BFA034604F23C7015A20A2106460CF077F8584688
:2063E000C4F834650EF03EFA102112A80EF01EFD014658460EF0D6F9542240F2111117E09B
:206400007CB30108D4CE010818D4010890C10108F0C6010878C70108C0BD010848BE0108AE
:2064200040A0010824D101083CD101082573000004F5A76082460CF069FB56460A22F021C6
:20644000522009F04DFD3063AAF83470132112A80EF0ECFC12F016FA0346AFF2300204F5B3
:20646000EA600A2106460CF031F85046C4F874650EF0F8F9122112A80EF0D8FC0146504680
:206480000EF090F904F5AF60782240F2111181460CF03CFB4E460A22F021522009F020FD2C
:2064A0003063A9F83470152112A80EF0BFFC12F0E9F90346AFF28C0204F264700A210646BE
:2064C0000CF004F84846C4F8B4650EF0CBF9142112A80EF0ABFC014648460EF063F904F5E3
:2064E000B7609C2240F2131180460CF00FFB46460A22F021522009F0F3FC3063A8F83470AB
:20650000172112A80EF092FC12F0BCF90346AFF2E40204F5EF600A2106460BF0D7FF404660
:20652000C4F8F4650EF09EF9162112A80EF07EFC014640460EF036F904F5BF600B221221D6
:206540000E900CF0E3FA0720ADF85000ADF8100014AA04A90E9809F0CBFD1D20C4F82056B2
:20656000009004F22C60DC230E223C2106460CF089FAAB228D21102009F0B2FC3063B78690
:20658000182112A80EF052FC014630460EF00AF904F5CD60342240F211110F900CF0B6FAE3
:2065A0001A20ADF810000320ADF8500004AA14A90F9804F0F9FE04F5D460C4F89056D02216
:2065C000902100900CF0A2FA0520ADF810001B20ADF8500004AA14A9009804F0E5FE04F505
:2065E000DB60C4F8C8563922FB2105460CF08EFA22223421D42009F073FC2863AF86272143
:2066000012A80EF013FC014628460EF0CBF8204606990AF03BFB204607990AF037FB204670
:2066200008990AF033FB204601990AF02FFB20460C990AF02BFB20460B990AF027FB59467D
:2066400020460AF023FB514620460AF01FFB494620460AF01BFB414620460AF017FB204647
:206660000E990AF013FB314620460AF00FFB20460F990AF00BFB204600990AF007FB294612
:2066800020460AF003FB17B0204600F000B830BCBDE8C08F10B51549016000F5DB600EF035
:2066A00031F9AC380EF02EF9743807F09BFA403807F098FA403807F095FA403807F092FA75
:2066C000403807F08FFA403807F08CFA503805F01DFA503805F01AFAA0F5457003F03AF839
:2066E000BDE81040C43809F0CBBB00007CB301087047704700F15802914203D10168D1F860
:2067000088100847704700002DE9F04F8DB00CF019FA00266C498662016000F12C042621AE
:206720002046F9F7B1FD20460AF006FD6749FF24016080F8264086622C3005F073F800F14B
:20674000480526212846F9F79FFD28460AF0F4FC0546DFF880915E48C5F8289028604FF638
:20676000FF72AA852E6325F8346F5B4AAC70EE702E716E71A5F1D404D2E900120835AB4622
:20678000564B2B60CBE90141EA60FA202081A02004F12C056081AA46074632464FF0FA0815
:2067A000114650460CF0B2F928684146426B2846904728683946826B28469047C2226D2189
:2067C000112009F08DFBA86204F158006422282107460CF09BF90120ADF830000CAA0BA9A4
:2067E000ADF82C60384609F083FC1E21CDF82090ADF8241007F134053987B846284612F086
:2068000031F83749A888096811F810003549096851F82060284612F025F83348A9880068BC
:2068200011F046FA019030680199426A30469047054630680199826A3046904707463068C0
:206840000199026C3046904707FB0050FF2288F84500002645461146104609F041FBFF22F7
:20686000E8631146104609F03BFB286421220C2104F1A000C4F880B00CF048F9002204F120
:20688000A0051146104609F02BFB2863D4251F222E5308A9CDF82090ADF8242004F1A0009D
:2068A0000DF080FF514620460EF063FA414620460EF05FFA04F1A00120460EF05AFA0DB0B5
:2068C000204600F013B80000BCB301084CCD0108A8D20108E0D5010828A0010854D10108BD
:2068E00000010020080100200401002030BCBDE8C08F7047806800F08DBF704710B50446A8
:20690000806800F0A7FF002804D0A068BDE8104000F0A0BF10BD806800F0A2BF806800F0D3
